{
  "contractName": "AuctionBidder",
  "abi": [
    {
      "inputs": [
        {
          "internalType": "address",
          "name": "auctionHouseAddress",
          "type": "address"
        }
      ],
      "stateMutability": "nonpayable",
      "type": "constructor"
    },
    {
      "stateMutability": "payable",
      "type": "receive",
      "payable": true
    },
    {
      "inputs": [
        {
          "internalType": "address",
          "name": "",
          "type": "address"
        },
        {
          "internalType": "address",
          "name": "",
          "type": "address"
        },
        {
          "internalType": "uint256",
          "name": "",
          "type": "uint256"
        },
        {
          "internalType": "bytes",
          "name": "",
          "type": "bytes"
        }
      ],
      "name": "onERC721Received",
      "outputs": [
        {
          "internalType": "bytes4",
          "name": "",
          "type": "bytes4"
        }
      ],
      "stateMutability": "pure",
      "type": "function",
      "constant": true
    },
    {
      "inputs": [
        {
          "internalType": "uint256",
          "name": "_amount",
          "type": "uint256"
        },
        {
          "internalType": "address payable",
          "name": "recipient",
          "type": "address"
        }
      ],
      "name": "withdraw",
      "outputs": [],
      "stateMutability": "nonpayable",
      "type": "function"
    },
    {
      "inputs": [
        {
          "internalType": "address payable",
          "name": "recipient",
          "type": "address"
        }
      ],
      "name": "withdrawAll",
      "outputs": [],
      "stateMutability": "nonpayable",
      "type": "function"
    },
    {
      "inputs": [],
      "name": "getFluidPrice",
      "outputs": [
        {
          "internalType": "uint256",
          "name": "price",
          "type": "uint256"
        }
      ],
      "stateMutability": "nonpayable",
      "type": "function"
    },
    {
      "inputs": [
        {
          "internalType": "uint256",
          "name": "FLUIDnftId",
          "type": "uint256"
        }
      ],
      "name": "getFluidClaim",
      "outputs": [
        {
          "internalType": "uint256",
          "name": "claim",
          "type": "uint256"
        }
      ],
      "stateMutability": "nonpayable",
      "type": "function"
    },
    {
      "inputs": [],
      "name": "checkUpkeep",
      "outputs": [],
      "stateMutability": "nonpayable",
      "type": "function"
    },
    {
      "inputs": [],
      "name": "performUpkeep",
      "outputs": [],
      "stateMutability": "nonpayable",
      "type": "function"
    }
  ],
  "bytecode": "0x60c060405234801561001057600080fd5b50604051610d7a380380610d7a83398181016040528101906100329190610103565b3373ffffffffffffffffffffffffffffffffffffffff1660808173ffffffffffffffffffffffffffffffffffffffff16815250508073ffffffffffffffffffffffffffffffffffffffff1660a08173ffffffffffffffffffffffffffffffffffffffff168152505050610130565b600080fd5b600073ffffffffffffffffffffffffffffffffffffffff82169050919050565b60006100d0826100a5565b9050919050565b6100e0816100c5565b81146100eb57600080fd5b50565b6000815190506100fd816100d7565b92915050565b600060208284031215610119576101186100a0565b5b6000610127848285016100ee565b91505092915050565b60805160a051610c1061016a600039600081816102eb015281816103ae015281816104860152610573015260006101a60152610c106000f3fe6080604052600436106100735760003560e01c80636e4d243a1161004e5780636e4d243a14610122578063965e21d914610139578063a13abdad14610164578063fa09e6301461017b5761007a565b8062f714ce1461007f5780630aad882b146100a8578063150b7a02146100e55761007a565b3661007a57005b600080fd5b34801561008b57600080fd5b506100a660048036038101906100a191906106a2565b6101a4565b005b3480156100b457600080fd5b506100cf60048036038101906100ca91906106e2565b6102c0565b6040516100dc919061071e565b60405180910390f35b3480156100f157600080fd5b5061010c600480360381019061010791906107dc565b6102cb565b604051610119919061089f565b60405180910390f35b34801561012e57600080fd5b506101376102e0565b005b34801561014557600080fd5b5061014e610466565b60405161015b919061071e565b60405180910390f35b34801561017057600080fd5b50610179610475565b005b34801561018757600080fd5b506101a2600480360381019061019d91906108ba565b610477565b005b7f000000000000000000000000000000000000000000000000000000000000000073ffffffffffffffffffffffffffffffffffffffff163373ffffffffffffffffffffffffffffffffffffffff1614610232576040517f08c379a000000000000000000000000000000000000000000000000000000000815260040161022990610944565b60405180910390fd5b81471015610275576040517f08c379a000000000000000000000000000000000000000000000000000000000815260040161026c906109b0565b60405180910390fd5b8073ffffffffffffffffffffffffffffffffffffffff166108fc839081150290604051600060405180830381858888f193505050501580156102bb573d6000803e3d6000fd5b505050565b6000600a9050919050565b600063150b7a0260e01b905095945050505050565b6000806000806000807f000000000000000000000000000000000000000000000000000000000000000073ffffffffffffffffffffffffffffffffffffffff16637d9f6db56040518163ffffffff1660e01b815260040160c060405180830381865afa158015610354573d6000803e3d6000fd5b505050506040513d601f19601f820116820180604052508101906103789190610a32565b95509550955095509550955060008414158015610393575080155b801561039f5750824210155b15610454576103ac610484565b7f000000000000000000000000000000000000000000000000000000000000000073ffffffffffffffffffffffffffffffffffffffff16637d9f6db56040518163ffffffff1660e01b815260040160c060405180830381865afa158015610417573d6000803e3d6000fd5b505050506040513d601f19601f8201168201806040525081019061043b9190610a32565b809650819750829850839950849a50859b505050505050505b61045e8686610506565b505050505050565b600066071afd498d0000905090565b565b61048147826101a4565b50565b7f000000000000000000000000000000000000000000000000000000000000000073ffffffffffffffffffffffffffffffffffffffff1663f25efffc6040518163ffffffff1660e01b8152600401600060405180830381600087803b1580156104ec57600080fd5b505af1158015610500573d6000803e3d6000fd5b50505050565b6000610511836102c0565b9050600061051d610466565b90506000828261052d9190610aee565b9050808410610571576040517f08c379a000000000000000000000000000000000000000000000000000000000815260040161056890610bba565b60405180910390fd5b7f000000000000000000000000000000000000000000000000000000000000000073ffffffffffffffffffffffffffffffffffffffff1663659dd2b482876040518363ffffffff1660e01b81526004016105cb919061071e565b6000604051808303818588803b1580156105e457600080fd5b505af11580156105f8573d6000803e3d6000fd5b50505050505050505050565b600080fd5b600080fd5b6000819050919050565b6106218161060e565b811461062c57600080fd5b50565b60008135905061063e81610618565b92915050565b600073ffffffffffffffffffffffffffffffffffffffff82169050919050565b600061066f82610644565b9050919050565b61067f81610664565b811461068a57600080fd5b50565b60008135905061069c81610676565b92915050565b600080604083850312156106b9576106b8610604565b5b60006106c78582860161062f565b92505060206106d88582860161068d565b9150509250929050565b6000602082840312156106f8576106f7610604565b5b60006107068482850161062f565b91505092915050565b6107188161060e565b82525050565b6000602082019050610733600083018461070f565b92915050565b600061074482610644565b9050919050565b61075481610739565b811461075f57600080fd5b50565b6000813590506107718161074b565b92915050565b600080fd5b600080fd5b600080fd5b60008083601f84011261079c5761079b610777565b5b8235905067ffffffffffffffff8111156107b9576107b861077c565b5b6020830191508360018202830111156107d5576107d4610781565b5b9250929050565b6000806000806000608086880312156107f8576107f7610604565b5b600061080688828901610762565b955050602061081788828901610762565b94505060406108288882890161062f565b935050606086013567ffffffffffffffff81111561084957610848610609565b5b61085588828901610786565b92509250509295509295909350565b60007fffffffff0000000000000000000000000000000000000000000000000000000082169050919050565b61089981610864565b82525050565b60006020820190506108b46000830184610890565b92915050565b6000602082840312156108d0576108cf610604565b5b60006108de8482850161068d565b91505092915050565b600082825260208201905092915050565b7f4e6f7420746865206f776e657200000000000000000000000000000000000000600082015250565b600061092e600d836108e7565b9150610939826108f8565b602082019050919050565b6000602082019050818103600083015261095d81610921565b9050919050565b7f4e6f7420656e6f7567682066756e647300000000000000000000000000000000600082015250565b600061099a6010836108e7565b91506109a582610964565b602082019050919050565b600060208201905081810360008301526109c98161098d565b9050919050565b6000815190506109df81610618565b92915050565b6000815190506109f481610676565b92915050565b60008115159050919050565b610a0f816109fa565b8114610a1a57600080fd5b50565b600081519050610a2c81610a06565b92915050565b60008060008060008060c08789031215610a4f57610a4e610604565b5b6000610a5d89828a016109d0565b9650506020610a6e89828a016109d0565b9550506040610a7f89828a016109d0565b9450506060610a9089828a016109d0565b9350506080610aa189828a016109e5565b92505060a0610ab289828a01610a1d565b9150509295509295509295565b7f4e487b7100000000000000000000000000000000000000000000000000000000600052601160045260246000fd5b6000610af98261060e565b9150610b048361060e565b9250817fffffffffffffffffffffffffffffffffffffffffffffffffffffffffffffffff0483118215151615610b3d57610b3c610abf565b5b828202905092915050565b7f7265766572743a2062696420616c726561647920686967686572207468616e2060008201527f7265736572766520707269636500000000000000000000000000000000000000602082015250565b6000610ba4602d836108e7565b9150610baf82610b48565b604082019050919050565b60006020820190508181036000830152610bd381610b97565b905091905056fea2646970667358221220e8cb205357112a167a7522246cd1ca2fddd9633b780964aa3c62f48735b9e86064736f6c634300080c0033",
  "immutableReferences": {
    "1418": [
      {
        "length": 32,
        "start": 422
      }
    ],
    "1421": [
      {
        "length": 32,
        "start": 747
      },
      {
        "length": 32,
        "start": 942
      },
      {
        "length": 32,
        "start": 1158
      },
      {
        "length": 32,
        "start": 1395
      }
    ]
  },
  "source": "// SPDX-License-Identifier: GNU General Public License v3.0\r\npragma solidity ^0.8.12;\r\n\r\n//import fluid auction interface\r\nimport \"fluiddao/contracts/interfaces/IAuctionHouse.sol\";\r\nimport \"fluiddao/contracts/AuctionHouse.sol\";\r\n\r\n//ERC721 receiver\r\nimport \"@openzeppelin/contracts/token/ERC721/IERC721Receiver.sol\";\r\n\r\ncontract AuctionBidder {\r\n\t\r\n\taddress immutable owner;\r\n\tAuctionHouse immutable auctionHouse;\r\n\r\n\tconstructor(address auctionHouseAddress) {\r\n\t\towner = msg.sender;\r\n\t\tauctionHouse = AuctionHouse(auctionHouseAddress);\r\n\t}\r\n\r\n\tfunction onERC721Received(address, address, uint256, bytes calldata) external pure returns (bytes4) {\r\n        return IERC721Receiver.onERC721Received.selector;\r\n    }\r\n\t/*\r\n\tfunction topUp() public payable{\r\n\t\t\r\n\t}\r\n\t*/\r\n\t\r\n\tfunction withdraw(uint256 _amount, address payable recipient) public {\r\n\t\trequire(msg.sender == owner, \"Not the owner\");\r\n\t\trequire(address(this).balance >= _amount, \"Not enough funds\");\r\n\t\trecipient.transfer(_amount);\r\n\t}\r\n\r\n\tfunction withdrawAll(address payable recipient) public {\r\n\t\twithdraw(address(this).balance, recipient);\r\n\t}\r\n\r\n\t\r\n\r\n\t//returns the price in ETH of a FLUID token\r\n\tfunction getFluidPrice() public returns (uint256 price){\r\n\t\tprice = 2 * 10 ** 15 ; //hardcoded to 0.002 ETH\r\n\t}\r\n\r\n\tfunction getFluidClaim(\r\n\t\tuint256 FLUIDnftId\r\n\t) public returns (\r\n\t\tuint256 claim\r\n\t){\r\n\t\treturn 10;\r\n\t}\r\n\r\n\tfunction checkUpkeep() public{\r\n\t\t//checkUpkeep returns true if\r\n\t\t// 1. auction is expired and needs to be settled\r\n\t\t// 2. Or new auction has been created and current bid price is lower than reserve price\r\n\t\t\r\n\t}\r\n\r\n\tfunction performUpkeep() public {\r\n\t\t//IAuctionHouse.Auction memory _auction = auctionHouse.auction();\r\n\r\n\t\t(\r\n\t\t\tuint256 _FLUIDnftId,\r\n\t\t\tuint256 _amount,\r\n\t\t\tuint256 _startTime,\r\n\t\t\tuint256 _endTime,\r\n\t\t\taddress payable _bidder,\r\n\t\t\tbool _settled\r\n\t\t) = auctionHouse.auction();\r\n\t\t\r\n\t\tif(\r\n\t\t\t_startTime != 0\r\n\t\t\t&& !_settled\r\n\t\t\t&& block.timestamp >= _endTime\r\n\t\t){\r\n\t\t\tsettleCurrent();\r\n\t\t\t//update auction parameters after settling and creating new\r\n\t\t\t(\r\n\t\t\t\t_FLUIDnftId,\r\n\t\t\t\t_amount,\r\n\t\t\t\t_startTime,\r\n\t\t\t\t_endTime,\r\n\t\t\t\t_bidder,\r\n\t\t\t\t_settled\r\n\t\t\t) = auctionHouse.auction();\r\n\t\t}\r\n\r\n\t\tbidFloor(_FLUIDnftId, _amount);\r\n\t}\r\n\r\n\tfunction bidFloor(uint256 FLUIDnftId, uint256 currentBid) private{\r\n\t\t//compute bid floor price\r\n\t\tuint256 fluidClaim = getFluidClaim(FLUIDnftId);\r\n\t\tuint256 currentFluidPrice = getFluidPrice();\r\n\t\tuint256 bidValue = currentFluidPrice * fluidClaim;\r\n\t\t//place bid\r\n\r\n\t\t//need to check if (1) possible to bid lower than current highest and (2) possible to remove bid\r\n\t\t//To prevent the program from not bidding because current bid is higher -> current bid gets removed -> malicious user profits\r\n\t\trequire(currentBid < bidValue, \"revert: bid already higher than reserve price\");\r\n\t\tauctionHouse.createBid{value: bidValue}(FLUIDnftId);\r\n\t}\r\n\r\n\tfunction settleCurrent() private {\r\n\t\tauctionHouse.settleCurrentAndCreateNewAuction();\r\n\t}\r\n\t\r\n\t\r\n\t/*as a reminder\r\n\tfunction getCurrentAuction() public{\r\n\t\treturn auctionHouse.auction();\r\n\t}*/\r\n\r\n\r\n\treceive() external payable {\r\n    }\r\n\r\n}",
  "sourcePath": "C:\\Users\\LeoDu\\source\\repos\\FluidAuctionBidder\\contracts\\AuctionBidder.sol",
  "compiler": {
    "name": "solc",
    "version": "0.8.12+commit.f00d7308.Emscripten.clang"
  },
  "schemaVersion": "3.4.10",
  "updatedAt": "2023-02-02T10:17:19.373Z",
  "networkType": "ethereum",
  "devdoc": {
    "kind": "dev",
    "methods": {},
    "version": 1
  },
  "userdoc": {
    "kind": "user",
    "methods": {},
    "version": 1
  }
}