{
  "contractName": "AuctionBidder",
  "abi": [
    {
      "inputs": [
        {
          "internalType": "address",
          "name": "auctionHouseAddress",
          "type": "address"
        }
      ],
      "stateMutability": "nonpayable",
      "type": "constructor"
    },
    {
      "stateMutability": "payable",
      "type": "receive"
    },
    {
      "inputs": [
        {
          "internalType": "address",
          "name": "",
          "type": "address"
        },
        {
          "internalType": "address",
          "name": "",
          "type": "address"
        },
        {
          "internalType": "uint256",
          "name": "",
          "type": "uint256"
        },
        {
          "internalType": "bytes",
          "name": "",
          "type": "bytes"
        }
      ],
      "name": "onERC721Received",
      "outputs": [
        {
          "internalType": "bytes4",
          "name": "",
          "type": "bytes4"
        }
      ],
      "stateMutability": "pure",
      "type": "function"
    },
    {
      "inputs": [
        {
          "internalType": "uint256",
          "name": "_amount",
          "type": "uint256"
        },
        {
          "internalType": "address payable",
          "name": "recipient",
          "type": "address"
        }
      ],
      "name": "withdraw",
      "outputs": [],
      "stateMutability": "nonpayable",
      "type": "function"
    },
    {
      "inputs": [
        {
          "internalType": "address payable",
          "name": "recipient",
          "type": "address"
        }
      ],
      "name": "withdrawAll",
      "outputs": [],
      "stateMutability": "nonpayable",
      "type": "function"
    },
    {
      "inputs": [],
      "name": "getFluidPrice",
      "outputs": [
        {
          "internalType": "uint256",
          "name": "price",
          "type": "uint256"
        }
      ],
      "stateMutability": "view",
      "type": "function"
    },
    {
      "inputs": [],
      "name": "getFluidClaim",
      "outputs": [
        {
          "internalType": "uint256",
          "name": "claim",
          "type": "uint256"
        }
      ],
      "stateMutability": "view",
      "type": "function"
    },
    {
      "inputs": [],
      "name": "checkUpkeep",
      "outputs": [],
      "stateMutability": "view",
      "type": "function"
    },
    {
      "inputs": [],
      "name": "performUpkeep",
      "outputs": [],
      "stateMutability": "nonpayable",
      "type": "function"
    }
  ],
  "bytecode": "0x60c060405234801561001057600080fd5b50604051610df9380380610df983398181016040528101906100329190610103565b3373ffffffffffffffffffffffffffffffffffffffff1660808173ffffffffffffffffffffffffffffffffffffffff16815250508073ffffffffffffffffffffffffffffffffffffffff1660a08173ffffffffffffffffffffffffffffffffffffffff168152505050610130565b600080fd5b600073ffffffffffffffffffffffffffffffffffffffff82169050919050565b60006100d0826100a5565b9050919050565b6100e0816100c5565b81146100eb57600080fd5b50565b6000815190506100fd816100d7565b92915050565b600060208284031215610119576101186100a0565b5b6000610127848285016100ee565b91505092915050565b60805160a051610c88610171600039600081816102b20152818161036401528181610427015281816104ff01526105eb015260006101940152610c886000f3fe6080604052600436106100735760003560e01c80636e4d243a1161004e5780636e4d243a14610110578063965e21d914610127578063a13abdad14610152578063fa09e630146101695761007a565b8062f714ce1461007f5780631321a62a146100a8578063150b7a02146100d35761007a565b3661007a57005b600080fd5b34801561008b57600080fd5b506100a660048036038101906100a1919061071a565b610192565b005b3480156100b457600080fd5b506100bd6102ae565b6040516100ca9190610769565b60405180910390f35b3480156100df57600080fd5b506100fa60048036038101906100f59190610827565b610344565b60405161010791906108ea565b60405180910390f35b34801561011c57600080fd5b50610125610359565b005b34801561013357600080fd5b5061013c6104df565b6040516101499190610769565b60405180910390f35b34801561015e57600080fd5b506101676104ee565b005b34801561017557600080fd5b50610190600480360381019061018b9190610905565b6104f0565b005b7f000000000000000000000000000000000000000000000000000000000000000073ffffffffffffffffffffffffffffffffffffffff163373ffffffffffffffffffffffffffffffffffffffff1614610220576040517f08c379a00000000000000000000000000000000000000000000000000000000081526004016102179061098f565b60405180910390fd5b81471015610263576040517f08c379a000000000000000000000000000000000000000000000000000000000815260040161025a906109fb565b60405180910390fd5b8073ffffffffffffffffffffffffffffffffffffffff166108fc839081150290604051600060405180830381858888f193505050501580156102a9573d6000803e3d6000fd5b505050565b60007f000000000000000000000000000000000000000000000000000000000000000073ffffffffffffffffffffffffffffffffffffffff1663f7b2a7be6040518163ffffffff1660e01b8152600401602060405180830381865afa15801561031b573d6000803e3d6000fd5b505050506040513d601f19601f8201168201806040525081019061033f9190610a30565b905090565b600063150b7a0260e01b905095945050505050565b6000806000806000807f000000000000000000000000000000000000000000000000000000000000000073ffffffffffffffffffffffffffffffffffffffff16637d9f6db56040518163ffffffff1660e01b815260040160c060405180830381865afa1580156103cd573d6000803e3d6000fd5b505050506040513d601f19601f820116820180604052508101906103f19190610aaa565b9550955095509550955095506000841415801561040c575080155b80156104185750824210155b156104cd576104256104fd565b7f000000000000000000000000000000000000000000000000000000000000000073ffffffffffffffffffffffffffffffffffffffff16637d9f6db56040518163ffffffff1660e01b815260040160c060405180830381865afa158015610490573d6000803e3d6000fd5b505050506040513d601f19601f820116820180604052508101906104b49190610aaa565b809650819750829850839950849a50859b505050505050505b6104d7868661057f565b505050505050565b600066071afd498d0000905090565b565b6104fa4782610192565b50565b7f000000000000000000000000000000000000000000000000000000000000000073ffffffffffffffffffffffffffffffffffffffff1663f25efffc6040518163ffffffff1660e01b8152600401600060405180830381600087803b15801561056557600080fd5b505af1158015610579573d6000803e3d6000fd5b50505050565b60006105896102ae565b905060006105956104df565b9050600082826105a59190610b66565b90508084106105e9576040517f08c379a00000000000000000000000000000000000000000000000000000000081526004016105e090610c32565b60405180910390fd5b7f000000000000000000000000000000000000000000000000000000000000000073ffffffffffffffffffffffffffffffffffffffff1663659dd2b482876040518363ffffffff1660e01b81526004016106439190610769565b6000604051808303818588803b15801561065c57600080fd5b505af1158015610670573d6000803e3d6000fd5b50505050505050505050565b600080fd5b600080fd5b6000819050919050565b61069981610686565b81146106a457600080fd5b50565b6000813590506106b681610690565b92915050565b600073ffffffffffffffffffffffffffffffffffffffff82169050919050565b60006106e7826106bc565b9050919050565b6106f7816106dc565b811461070257600080fd5b50565b600081359050610714816106ee565b92915050565b600080604083850312156107315761073061067c565b5b600061073f858286016106a7565b925050602061075085828601610705565b9150509250929050565b61076381610686565b82525050565b600060208201905061077e600083018461075a565b92915050565b600061078f826106bc565b9050919050565b61079f81610784565b81146107aa57600080fd5b50565b6000813590506107bc81610796565b92915050565b600080fd5b600080fd5b600080fd5b60008083601f8401126107e7576107e66107c2565b5b8235905067ffffffffffffffff811115610804576108036107c7565b5b6020830191508360018202830111156108205761081f6107cc565b5b9250929050565b6000806000806000608086880312156108435761084261067c565b5b6000610851888289016107ad565b9550506020610862888289016107ad565b9450506040610873888289016106a7565b935050606086013567ffffffffffffffff81111561089457610893610681565b5b6108a0888289016107d1565b92509250509295509295909350565b60007fffffffff0000000000000000000000000000000000000000000000000000000082169050919050565b6108e4816108af565b82525050565b60006020820190506108ff60008301846108db565b92915050565b60006020828403121561091b5761091a61067c565b5b600061092984828501610705565b91505092915050565b600082825260208201905092915050565b7f4e6f7420746865206f776e657200000000000000000000000000000000000000600082015250565b6000610979600d83610932565b915061098482610943565b602082019050919050565b600060208201905081810360008301526109a88161096c565b9050919050565b7f4e6f7420656e6f7567682066756e647300000000000000000000000000000000600082015250565b60006109e5601083610932565b91506109f0826109af565b602082019050919050565b60006020820190508181036000830152610a14816109d8565b9050919050565b600081519050610a2a81610690565b92915050565b600060208284031215610a4657610a4561067c565b5b6000610a5484828501610a1b565b91505092915050565b600081519050610a6c816106ee565b92915050565b60008115159050919050565b610a8781610a72565b8114610a9257600080fd5b50565b600081519050610aa481610a7e565b92915050565b60008060008060008060c08789031215610ac757610ac661067c565b5b6000610ad589828a01610a1b565b9650506020610ae689828a01610a1b565b9550506040610af789828a01610a1b565b9450506060610b0889828a01610a1b565b9350506080610b1989828a01610a5d565b92505060a0610b2a89828a01610a95565b9150509295509295509295565b7f4e487b7100000000000000000000000000000000000000000000000000000000600052601160045260246000fd5b6000610b7182610686565b9150610b7c83610686565b9250817fffffffffffffffffffffffffffffffffffffffffffffffffffffffffffffffff0483118215151615610bb557610bb4610b37565b5b828202905092915050565b7f7265766572743a2062696420616c726561647920686967686572207468616e2060008201527f7265736572766520707269636500000000000000000000000000000000000000602082015250565b6000610c1c602d83610932565b9150610c2782610bc0565b604082019050919050565b60006020820190508181036000830152610c4b81610c0f565b905091905056fea2646970667358221220f7986c1ef1284b0cb224a8ec57ef2b9386d4a081f357a517215bbecbf4cba26264736f6c634300080c0033",
  "immutableReferences": {
    "1418": [
      {
        "length": 32,
        "start": 404
      }
    ],
    "1421": [
      {
        "length": 32,
        "start": 690
      },
      {
        "length": 32,
        "start": 868
      },
      {
        "length": 32,
        "start": 1063
      },
      {
        "length": 32,
        "start": 1279
      },
      {
        "length": 32,
        "start": 1515
      }
    ]
  },
  "source": "// SPDX-License-Identifier: GNU General Public License v3.0\r\npragma solidity ^0.8.12;\r\n\r\n//import fluid auction interface\r\nimport \"fluiddao/contracts/interfaces/IAuctionHouse.sol\";\r\nimport \"fluiddao/contracts/AuctionHouse.sol\";\r\n\r\n//ERC721 receiver\r\nimport \"@openzeppelin/contracts/token/ERC721/IERC721Receiver.sol\";\r\n\r\ncontract AuctionBidder {\r\n\t\r\n\taddress immutable owner;\r\n\tAuctionHouse immutable auctionHouse;\r\n\r\n\tconstructor(address auctionHouseAddress) {\r\n\t\towner = msg.sender;\r\n\t\tauctionHouse = AuctionHouse(auctionHouseAddress);\r\n\t}\r\n\r\n\tfunction onERC721Received(address, address, uint256, bytes calldata) external pure returns (bytes4) {\r\n        return IERC721Receiver.onERC721Received.selector;\r\n    }\r\n\t/*\r\n\tfunction topUp() public payable{\r\n\t\t\r\n\t}\r\n\t*/\r\n\t\r\n\tfunction withdraw(uint256 _amount, address payable recipient) public {\r\n\t\trequire(msg.sender == owner, \"Not the owner\");\r\n\t\trequire(address(this).balance >= _amount, \"Not enough funds\");\r\n\t\trecipient.transfer(_amount);\r\n\t}\r\n\r\n\tfunction withdrawAll(address payable recipient) public {\r\n\t\twithdraw(address(this).balance, recipient);\r\n\t}\r\n\r\n\t\r\n\r\n\t//returns the price in ETH of a FLUID token\r\n\tfunction getFluidPrice() public view returns (uint256 price){\r\n\t\tprice = 2 * 10 ** 15 ; //hardcoded to 0.002 ETH\r\n\t}\r\n\r\n\tfunction getFluidClaim() public view returns (\r\n\t\tuint256 claim\r\n\t){\r\n\t\tclaim = auctionHouse.rewardAmount(); //returns the current reward amount with a 18 decimals\r\n\t}\r\n\r\n\tfunction checkUpkeep() public view {\r\n\t\t//checkUpkeep returns true if\r\n\t\t// 1. auction is expired and needs to be settled\r\n\t\t// 2. Or new auction has been created and current bid price is lower than reserve price\r\n\t\t\r\n\t}\r\n\r\n\tfunction performUpkeep() public {\r\n\t\t(\r\n\t\t\tuint256 _FLUIDnftId,\r\n\t\t\tuint256 _amount,\r\n\t\t\tuint256 _startTime,\r\n\t\t\tuint256 _endTime,\r\n\t\t\taddress payable _bidder,\r\n\t\t\tbool _settled\r\n\t\t) = auctionHouse.auction();\r\n\t\t\r\n\t\tif(\r\n\t\t\t_startTime != 0\r\n\t\t\t&& !_settled\r\n\t\t\t&& block.timestamp >= _endTime\r\n\t\t){\r\n\t\t\tsettleCurrent();\r\n\t\t\t//update auction parameters after settling and creating new\r\n\t\t\t(\r\n\t\t\t\t_FLUIDnftId,\r\n\t\t\t\t_amount,\r\n\t\t\t\t_startTime,\r\n\t\t\t\t_endTime,\r\n\t\t\t\t_bidder,\r\n\t\t\t\t_settled\r\n\t\t\t) = auctionHouse.auction();\r\n\t\t}\r\n\r\n\t\tbidFloor(_FLUIDnftId, _amount);\r\n\t}\r\n\r\n\tfunction bidFloor(uint256 FLUIDnftId, uint256 currentBid) private{\r\n\t\t//compute bid floor price\r\n\t\tuint256 fluidClaim = getFluidClaim();\r\n\t\tuint256 currentFluidPrice = getFluidPrice();\r\n\t\tuint256 bidValue = currentFluidPrice * fluidClaim;\r\n\t\t//place bid\r\n\r\n\t\t//need to check if (1) possible to bid lower than current highest and (2) possible to remove bid\r\n\t\t//To prevent the program from not bidding because current bid is higher -> current bid gets removed -> malicious user profits\r\n\t\trequire(currentBid < bidValue, \"revert: bid already higher than reserve price\");\r\n\t\tauctionHouse.createBid{value: bidValue}(FLUIDnftId);\r\n\t}\r\n\r\n\tfunction settleCurrent() private {\r\n\t\tauctionHouse.settleCurrentAndCreateNewAuction();\r\n\t}\r\n\t\r\n\t\r\n\t/*as a reminder\r\n\tfunction getCurrentAuction() public{\r\n\t\treturn auctionHouse.auction();\r\n\t}*/\r\n\r\n\r\n\treceive() external payable {\r\n    }\r\n\r\n}",
  "sourcePath": "C:\\Users\\LeoDu\\source\\repos\\FluidAuctionBidder\\contracts\\AuctionBidder.sol",
  "compiler": {
    "name": "solc",
    "version": "0.8.12+commit.f00d7308.Emscripten.clang"
  },
  "schemaVersion": "3.4.10",
  "updatedAt": "2023-02-02T14:25:39.763Z",
  "devdoc": {
    "kind": "dev",
    "methods": {},
    "version": 1
  },
  "userdoc": {
    "kind": "user",
    "methods": {},
    "version": 1
  }
}