{
  "contractName": "AuctionBidder",
  "abi": [
    {
      "inputs": [
        {
          "internalType": "address",
          "name": "auctionHouseAddress",
          "type": "address"
        }
      ],
      "stateMutability": "nonpayable",
      "type": "constructor"
    },
    {
      "stateMutability": "payable",
      "type": "receive"
    },
    {
      "inputs": [
        {
          "internalType": "address",
          "name": "",
          "type": "address"
        },
        {
          "internalType": "address",
          "name": "",
          "type": "address"
        },
        {
          "internalType": "uint256",
          "name": "",
          "type": "uint256"
        },
        {
          "internalType": "bytes",
          "name": "",
          "type": "bytes"
        }
      ],
      "name": "onERC721Received",
      "outputs": [
        {
          "internalType": "bytes4",
          "name": "",
          "type": "bytes4"
        }
      ],
      "stateMutability": "pure",
      "type": "function"
    },
    {
      "inputs": [
        {
          "internalType": "uint256",
          "name": "_amount",
          "type": "uint256"
        },
        {
          "internalType": "address payable",
          "name": "recipient",
          "type": "address"
        }
      ],
      "name": "withdraw",
      "outputs": [],
      "stateMutability": "nonpayable",
      "type": "function"
    },
    {
      "inputs": [
        {
          "internalType": "address payable",
          "name": "recipient",
          "type": "address"
        }
      ],
      "name": "withdrawAll",
      "outputs": [],
      "stateMutability": "nonpayable",
      "type": "function"
    },
    {
      "inputs": [],
      "name": "getSushiPoolBalances",
      "outputs": [
        {
          "internalType": "uint256",
          "name": "currentSushiReservesFluid",
          "type": "uint256"
        },
        {
          "internalType": "uint256",
          "name": "currentSushiReservesWeth",
          "type": "uint256"
        }
      ],
      "stateMutability": "view",
      "type": "function"
    },
    {
      "inputs": [],
      "name": "getFluidClaim",
      "outputs": [
        {
          "internalType": "uint256",
          "name": "claim",
          "type": "uint256"
        }
      ],
      "stateMutability": "view",
      "type": "function"
    },
    {
      "inputs": [],
      "name": "performUpkeep",
      "outputs": [],
      "stateMutability": "nonpayable",
      "type": "function"
    },
    {
      "inputs": [],
      "name": "withdrawToTreasury",
      "outputs": [],
      "stateMutability": "nonpayable",
      "type": "function"
    }
  ],
  "bytecode": "0x6101406040523480156200001257600080fd5b506040516200142938038062001429833981810160405281019062000038919062000233565b3373ffffffffffffffffffffffffffffffffffffffff1660808173ffffffffffffffffffffffffffffffffffffffff16815250508073ffffffffffffffffffffffffffffffffffffffff1660a08173ffffffffffffffffffffffffffffffffffffffff168152505073d33c0bf246902ff4c87fa52c32f01ab0126fda1573ffffffffffffffffffffffffffffffffffffffff166101008173ffffffffffffffffffffffffffffffffffffffff168152505073b4fbf271143f4fbf7b91a5ded31805e42b2208d673ffffffffffffffffffffffffffffffffffffffff1660c08173ffffffffffffffffffffffffffffffffffffffff168152505073ba01a0552c37036168b120165599193042c93b0e73ffffffffffffffffffffffffffffffffffffffff1660e08173ffffffffffffffffffffffffffffffffffffffff168152505073c4339be0780a5922007919d19d39cc02234d68bf73ffffffffffffffffffffffffffffffffffffffff166101208173ffffffffffffffffffffffffffffffffffffffff16815250505062000265565b600080fd5b600073ffffffffffffffffffffffffffffffffffffffff82169050919050565b6000620001fb82620001ce565b9050919050565b6200020d81620001ee565b81146200021957600080fd5b50565b6000815190506200022d8162000202565b92915050565b6000602082840312156200024c576200024b620001c9565b5b60006200025c848285016200021c565b91505092915050565b60805160a05160c05160e0516101005161012051611143620002e660003960006105bc015260008181610681015261073d0152600081816104e4015281816105800152610645015260006107010152600081816102b30152818161036501528181610428015281816107ce015261090a0152600061019501526111436000f3fe6080604052600436106100735760003560e01c80636e4d243a1161004e5780636e4d243a146101105780637e80c186146101275780639c35fc701461013e578063fa09e6301461016a5761007a565b8062f714ce1461007f5780631321a62a146100a8578063150b7a02146100d35761007a565b3661007a57005b600080fd5b34801561008b57600080fd5b506100a660048036038101906100a19190610a3a565b610193565b005b3480156100b457600080fd5b506100bd6102af565b6040516100ca9190610a89565b60405180910390f35b3480156100df57600080fd5b506100fa60048036038101906100f59190610b47565b610345565b6040516101079190610c0a565b60405180910390f35b34801561011c57600080fd5b5061012561035a565b005b34801561013357600080fd5b5061013c6104e0565b005b34801561014a57600080fd5b50610153610640565b604051610161929190610c25565b60405180910390f35b34801561017657600080fd5b50610191600480360381019061018c9190610c4e565b6107bf565b005b7f000000000000000000000000000000000000000000000000000000000000000073ffffffffffffffffffffffffffffffffffffffff163373ffffffffffffffffffffffffffffffffffffffff1614610221576040517f08c379a000000000000000000000000000000000000000000000000000000000815260040161021890610cd8565b60405180910390fd5b81471015610264576040517f08c379a000000000000000000000000000000000000000000000000000000000815260040161025b90610d44565b60405180910390fd5b8073ffffffffffffffffffffffffffffffffffffffff166108fc839081150290604051600060405180830381858888f193505050501580156102aa573d6000803e3d6000fd5b505050565b60007f000000000000000000000000000000000000000000000000000000000000000073ffffffffffffffffffffffffffffffffffffffff1663f7b2a7be6040518163ffffffff1660e01b8152600401602060405180830381865afa15801561031c573d6000803e3d6000fd5b505050506040513d601f19601f820116820180604052508101906103409190610d79565b905090565b600063150b7a0260e01b905095945050505050565b6000806000806000807f000000000000000000000000000000000000000000000000000000000000000073ffffffffffffffffffffffffffffffffffffffff16637d9f6db56040518163ffffffff1660e01b815260040160c060405180830381865afa1580156103ce573d6000803e3d6000fd5b505050506040513d601f19601f820116820180604052508101906103f29190610df3565b9550955095509550955095506000841415801561040d575080155b80156104195750824210155b156104ce576104266107cc565b7f000000000000000000000000000000000000000000000000000000000000000073ffffffffffffffffffffffffffffffffffffffff16637d9f6db56040518163ffffffff1660e01b815260040160c060405180830381865afa158015610491573d6000803e3d6000fd5b505050506040513d601f19601f820116820180604052508101906104b59190610df3565b809650819750829850839950849a50859b505050505050505b6104d8868661084e565b505050505050565b60007f000000000000000000000000000000000000000000000000000000000000000073ffffffffffffffffffffffffffffffffffffffff166370a08231306040518263ffffffff1660e01b815260040161053b9190610e8f565b602060405180830381865afa158015610558573d6000803e3d6000fd5b505050506040513d601f19601f8201168201806040525081019061057c9190610d79565b90507f000000000000000000000000000000000000000000000000000000000000000073ffffffffffffffffffffffffffffffffffffffff1663a9059cbb7f0000000000000000000000000000000000000000000000000000000000000000836040518363ffffffff1660e01b81526004016105f9929190610eaa565b6020604051808303816000875af1158015610618573d6000803e3d6000fd5b505050506040513d601f19601f8201168201806040525081019061063c9190610ed3565b5050565b6000807f000000000000000000000000000000000000000000000000000000000000000073ffffffffffffffffffffffffffffffffffffffff166370a082317f00000000000000000000000000000000000000000000000000000000000000006040518263ffffffff1660e01b81526004016106bc9190610e8f565b602060405180830381865afa1580156106d9573d6000803e3d6000fd5b505050506040513d601f19601f820116820180604052508101906106fd9190610d79565b91507f000000000000000000000000000000000000000000000000000000000000000073ffffffffffffffffffffffffffffffffffffffff166370a082317f00000000000000000000000000000000000000000000000000000000000000006040518263ffffffff1660e01b81526004016107789190610e8f565b602060405180830381865afa158015610795573d6000803e3d6000fd5b505050506040513d601f19601f820116820180604052508101906107b99190610d79565b90509091565b6107c94782610193565b50565b7f000000000000000000000000000000000000000000000000000000000000000073ffffffffffffffffffffffffffffffffffffffff1663f25efffc6040518163ffffffff1660e01b8152600401600060405180830381600087803b15801561083457600080fd5b505af1158015610848573d6000803e3d6000fd5b50505050565b60006108586102af565b9050600080610865610640565b9150915060008184846108789190610f2f565b6108829190610fb8565b90508085106108c6576040517f08c379a00000000000000000000000000000000000000000000000000000000081526004016108bd9061105b565b60405180910390fd5b804711610908576040517f08c379a00000000000000000000000000000000000000000000000000000000081526004016108ff906110ed565b60405180910390fd5b7f000000000000000000000000000000000000000000000000000000000000000073ffffffffffffffffffffffffffffffffffffffff1663659dd2b482886040518363ffffffff1660e01b81526004016109629190610a89565b6000604051808303818588803b15801561097b57600080fd5b505af115801561098f573d6000803e3d6000fd5b5050505050505050505050565b600080fd5b600080fd5b6000819050919050565b6109b9816109a6565b81146109c457600080fd5b50565b6000813590506109d6816109b0565b92915050565b600073ffffffffffffffffffffffffffffffffffffffff82169050919050565b6000610a07826109dc565b9050919050565b610a17816109fc565b8114610a2257600080fd5b50565b600081359050610a3481610a0e565b92915050565b60008060408385031215610a5157610a5061099c565b5b6000610a5f858286016109c7565b9250506020610a7085828601610a25565b9150509250929050565b610a83816109a6565b82525050565b6000602082019050610a9e6000830184610a7a565b92915050565b6000610aaf826109dc565b9050919050565b610abf81610aa4565b8114610aca57600080fd5b50565b600081359050610adc81610ab6565b92915050565b600080fd5b600080fd5b600080fd5b60008083601f840112610b0757610b06610ae2565b5b8235905067ffffffffffffffff811115610b2457610b23610ae7565b5b602083019150836001820283011115610b4057610b3f610aec565b5b9250929050565b600080600080600060808688031215610b6357610b6261099c565b5b6000610b7188828901610acd565b9550506020610b8288828901610acd565b9450506040610b93888289016109c7565b935050606086013567ffffffffffffffff811115610bb457610bb36109a1565b5b610bc088828901610af1565b92509250509295509295909350565b60007fffffffff0000000000000000000000000000000000000000000000000000000082169050919050565b610c0481610bcf565b82525050565b6000602082019050610c1f6000830184610bfb565b92915050565b6000604082019050610c3a6000830185610a7a565b610c476020830184610a7a565b9392505050565b600060208284031215610c6457610c6361099c565b5b6000610c7284828501610a25565b91505092915050565b600082825260208201905092915050565b7f4e6f7420746865206f776e657200000000000000000000000000000000000000600082015250565b6000610cc2600d83610c7b565b9150610ccd82610c8c565b602082019050919050565b60006020820190508181036000830152610cf181610cb5565b9050919050565b7f4e6f7420656e6f7567682066756e647300000000000000000000000000000000600082015250565b6000610d2e601083610c7b565b9150610d3982610cf8565b602082019050919050565b60006020820190508181036000830152610d5d81610d21565b9050919050565b600081519050610d73816109b0565b92915050565b600060208284031215610d8f57610d8e61099c565b5b6000610d9d84828501610d64565b91505092915050565b600081519050610db581610a0e565b92915050565b60008115159050919050565b610dd081610dbb565b8114610ddb57600080fd5b50565b600081519050610ded81610dc7565b92915050565b60008060008060008060c08789031215610e1057610e0f61099c565b5b6000610e1e89828a01610d64565b9650506020610e2f89828a01610d64565b9550506040610e4089828a01610d64565b9450506060610e5189828a01610d64565b9350506080610e6289828a01610da6565b92505060a0610e7389828a01610dde565b9150509295509295509295565b610e8981610aa4565b82525050565b6000602082019050610ea46000830184610e80565b92915050565b6000604082019050610ebf6000830185610e80565b610ecc6020830184610a7a565b9392505050565b600060208284031215610ee957610ee861099c565b5b6000610ef784828501610dde565b91505092915050565b7f4e487b7100000000000000000000000000000000000000000000000000000000600052601160045260246000fd5b6000610f3a826109a6565b9150610f45836109a6565b9250817fffffffffffffffffffffffffffffffffffffffffffffffffffffffffffffffff0483118215151615610f7e57610f7d610f00565b5b828202905092915050565b7f4e487b7100000000000000000000000000000000000000000000000000000000600052601260045260246000fd5b6000610fc3826109a6565b9150610fce836109a6565b925082610fde57610fdd610f89565b5b828204905092915050565b7f7265766572743a2062696420616c726561647920686967686572207468616e2060008201527f7265736572766520707269636500000000000000000000000000000000000000602082015250565b6000611045602d83610c7b565b915061105082610fe9565b604082019050919050565b6000602082019050818103600083015261107481611038565b9050919050565b7f7265766572743a206e6f7420656e6f7567682045544820696e2074686520636f60008201527f6e74726163740000000000000000000000000000000000000000000000000000602082015250565b60006110d7602683610c7b565b91506110e28261107b565b604082019050919050565b60006020820190508181036000830152611106816110ca565b905091905056fea2646970667358221220e26ea2fb0be3a96a674d41acaeaa7b7d1758ae4bd578cdcd8d5728e72b1ef7a464736f6c634300080c0033",
  "immutableReferences": {
    "1419": [
      {
        "length": 32,
        "start": 405
      }
    ],
    "1422": [
      {
        "length": 32,
        "start": 691
      },
      {
        "length": 32,
        "start": 869
      },
      {
        "length": 32,
        "start": 1064
      },
      {
        "length": 32,
        "start": 1998
      },
      {
        "length": 32,
        "start": 2314
      }
    ],
    "1424": [
      {
        "length": 32,
        "start": 1793
      }
    ],
    "1426": [
      {
        "length": 32,
        "start": 1252
      },
      {
        "length": 32,
        "start": 1408
      },
      {
        "length": 32,
        "start": 1605
      }
    ],
    "1428": [
      {
        "length": 32,
        "start": 1665
      },
      {
        "length": 32,
        "start": 1853
      }
    ],
    "1430": [
      {
        "length": 32,
        "start": 1468
      }
    ]
  },
  "source": "// SPDX-License-Identifier: GNU General Public License v3.0\r\n\r\npragma solidity ^0.8.12;\r\n\r\n//import fluid auction interface\r\nimport \"fluiddao/contracts/interfaces/IAuctionHouse.sol\";\r\nimport \"fluiddao/contracts/AuctionHouse.sol\";\r\n\r\n//ERC721 receiver\r\nimport \"@openzeppelin/contracts/token/ERC721/IERC721Receiver.sol\";\r\nimport \"@openzeppelin/contracts/token/ERC20/IERC20.sol\";\r\n\r\ncontract AuctionBidder {\r\n\t\r\n\taddress immutable owner;\r\n\tAuctionHouse immutable auctionHouse;\r\n\taddress immutable WETH2;\r\n\taddress immutable FLUID;\r\n\taddress immutable sushiPool;\r\n\taddress immutable treasury; \r\n\r\n\t///goerli sushiSwap pair address 0xd33c0bf246902ff4C87FA52C32F01aB0126Fda15\r\n\tconstructor(\r\n\t\taddress auctionHouseAddress\r\n\t) {\r\n\t\towner = msg.sender;\r\n\t\tauctionHouse = AuctionHouse(auctionHouseAddress);\r\n\t\tsushiPool = address(0xd33c0bf246902ff4C87FA52C32F01aB0126Fda15);\r\n\t\tWETH2 = address(0xB4FBF271143F4FBf7B91A5ded31805e42b2208d6);\r\n\t\tFLUID = address(0xBa01a0552C37036168b120165599193042c93B0E);\r\n\t\ttreasury = address(0xc4339bE0780a5922007919d19d39Cc02234d68Bf);\r\n\t}\r\n\r\n\tfunction onERC721Received(address, address, uint256, bytes calldata) external pure returns (bytes4) {\r\n        return IERC721Receiver.onERC721Received.selector;\r\n    }\r\n\t/*\r\n\tfunction topUp() public payable{\r\n\t\t\r\n\t}\r\n\t*/\r\n\t\r\n\tfunction withdraw(uint256 _amount, address payable recipient) public {\r\n\t\trequire(msg.sender == owner, \"Not the owner\");\r\n\t\trequire(address(this).balance >= _amount, \"Not enough funds\");\r\n\t\trecipient.transfer(_amount);\r\n\t}\r\n\r\n\tfunction withdrawAll(address payable recipient) public {\r\n\t\twithdraw(address(this).balance, recipient);\r\n\t}\r\n\r\n\t//returns the price in ETH of a FLUID token\r\n\tfunction getSushiPoolBalances() \r\n\tpublic \r\n\tview \r\n\treturns (\r\n\t\tuint256 currentSushiReservesFluid,\r\n\t\tuint256 currentSushiReservesWeth\r\n\t){\r\n\t\tcurrentSushiReservesFluid = IERC20(FLUID).balanceOf(sushiPool);\r\n\t\tcurrentSushiReservesWeth = IERC20(WETH2).balanceOf(sushiPool);\r\n\t}\r\n\r\n\tfunction getFluidClaim() public view returns (\r\n\t\tuint256 claim\r\n\t){\r\n\t\tclaim = auctionHouse.rewardAmount(); //returns the current reward amount with a 18 decimals\r\n\t}\r\n\r\n\tfunction performUpkeep() public {\r\n\t\t(\r\n\t\t\tuint256 _FLUIDnftId,\r\n\t\t\tuint256 _amount,\r\n\t\t\tuint256 _startTime,\r\n\t\t\tuint256 _endTime,\r\n\t\t\taddress payable _bidder,\r\n\t\t\tbool _settled\r\n\t\t) = auctionHouse.auction();\r\n\t\t\r\n\t\tif(\r\n\t\t\t_startTime != 0\r\n\t\t\t&& !_settled\r\n\t\t\t&& block.timestamp >= _endTime\r\n\t\t){\r\n\t\t\tsettleCurrent();\r\n\t\t\t//update auction parameters after settling and creating new\r\n\t\t\t(\r\n\t\t\t\t_FLUIDnftId,\r\n\t\t\t\t_amount,\r\n\t\t\t\t_startTime,\r\n\t\t\t\t_endTime,\r\n\t\t\t\t_bidder,\r\n\t\t\t\t_settled\r\n\t\t\t) = auctionHouse.auction();\r\n\t\t}\r\n\r\n\t\tbidFloor(_FLUIDnftId, _amount);\r\n\t}\r\n\r\n\tfunction bidFloor(uint256 FLUIDnftId, uint256 currentBid) private{\r\n\t\t//compute bid floor price\r\n\t\tuint256 fluidClaim = getFluidClaim();\r\n\t\t(\r\n\t\t\tuint256 currentSushiReservesFluid,\r\n\t\t\tuint256 currentSushiReservesWeth\r\n\t\t) = getSushiPoolBalances();\r\n\r\n\t\t//Need to SafeMath this to avoid overflow issues\r\n\t\tuint256 bidValue = currentSushiReservesFluid * fluidClaim / currentSushiReservesWeth;\r\n\r\n\t\trequire(currentBid < bidValue, \"revert: bid already higher than reserve price\");\r\n\t\trequire(address(this).balance > bidValue, \"revert: not enough ETH in the contract\");\r\n\t\tauctionHouse.createBid{value: bidValue}(FLUIDnftId);\r\n\t}\r\n\r\n\tfunction settleCurrent() private {\r\n\t\tauctionHouse.settleCurrentAndCreateNewAuction();\r\n\t}\r\n\r\n\tfunction withdrawToTreasury() public {\r\n\t\t//Send the on-hand $FLUID balance + Fluid-ids to the treasury address\r\n\t\tuint256 fluidBalance = IERC20(FLUID).balanceOf(address(this));\r\n\t\tIERC20(FLUID).transfer(treasury, fluidBalance);\r\n\r\n\t\t//add the Fluid IDs\r\n\t}\r\n\t\r\n\treceive() external payable {\r\n    }\r\n\r\n}",
  "sourcePath": "C:\\Users\\LeoDu\\source\\repos\\FluidAuctionBidder\\contracts\\AuctionBidder.sol",
  "compiler": {
    "name": "solc",
    "version": "0.8.12+commit.f00d7308.Emscripten.clang"
  },
  "schemaVersion": "3.4.10",
  "updatedAt": "2023-02-08T17:11:42.785Z",
  "devdoc": {
    "kind": "dev",
    "methods": {},
    "version": 1
  },
  "userdoc": {
    "kind": "user",
    "methods": {
      "constructor": {
        "notice": "goerli sushiSwap pair address 0xd33c0bf246902ff4C87FA52C32F01aB0126Fda15"
      }
    },
    "version": 1
  }
}