{
  "contractName": "AuctionBidder",
  "abi": [
    {
      "inputs": [
        {
          "internalType": "address",
          "name": "auctionHouseAddress",
          "type": "address"
        }
      ],
      "stateMutability": "nonpayable",
      "type": "constructor"
    },
    {
      "stateMutability": "payable",
      "type": "receive"
    },
    {
      "inputs": [
        {
          "internalType": "address",
          "name": "",
          "type": "address"
        },
        {
          "internalType": "address",
          "name": "",
          "type": "address"
        },
        {
          "internalType": "uint256",
          "name": "",
          "type": "uint256"
        },
        {
          "internalType": "bytes",
          "name": "",
          "type": "bytes"
        }
      ],
      "name": "onERC721Received",
      "outputs": [
        {
          "internalType": "bytes4",
          "name": "",
          "type": "bytes4"
        }
      ],
      "stateMutability": "pure",
      "type": "function"
    },
    {
      "inputs": [
        {
          "internalType": "uint256",
          "name": "_amount",
          "type": "uint256"
        },
        {
          "internalType": "address payable",
          "name": "recipient",
          "type": "address"
        }
      ],
      "name": "withdraw",
      "outputs": [],
      "stateMutability": "nonpayable",
      "type": "function"
    },
    {
      "inputs": [
        {
          "internalType": "address payable",
          "name": "recipient",
          "type": "address"
        }
      ],
      "name": "withdrawAll",
      "outputs": [],
      "stateMutability": "nonpayable",
      "type": "function"
    },
    {
      "inputs": [],
      "name": "getSushiPoolBalances",
      "outputs": [
        {
          "internalType": "uint256",
          "name": "currentSushiReservesFluid",
          "type": "uint256"
        },
        {
          "internalType": "uint256",
          "name": "currentSushiReservesWeth",
          "type": "uint256"
        }
      ],
      "stateMutability": "view",
      "type": "function"
    },
    {
      "inputs": [],
      "name": "getFluidClaim",
      "outputs": [
        {
          "internalType": "uint256",
          "name": "claim",
          "type": "uint256"
        }
      ],
      "stateMutability": "view",
      "type": "function"
    },
    {
      "inputs": [],
      "name": "checkUpkeep",
      "outputs": [],
      "stateMutability": "view",
      "type": "function"
    },
    {
      "inputs": [],
      "name": "performUpkeep",
      "outputs": [],
      "stateMutability": "nonpayable",
      "type": "function"
    }
  ],
  "bytecode": "0x61012060405234801561001157600080fd5b506040516200112f3803806200112f833981810160405281019061003591906101df565b3373ffffffffffffffffffffffffffffffffffffffff1660808173ffffffffffffffffffffffffffffffffffffffff16815250508073ffffffffffffffffffffffffffffffffffffffff1660a08173ffffffffffffffffffffffffffffffffffffffff168152505073d33c0bf246902ff4c87fa52c32f01ab0126fda1573ffffffffffffffffffffffffffffffffffffffff166101008173ffffffffffffffffffffffffffffffffffffffff168152505073b4fbf271143f4fbf7b91a5ded31805e42b2208d673ffffffffffffffffffffffffffffffffffffffff1660c08173ffffffffffffffffffffffffffffffffffffffff168152505073ba01a0552c37036168b120165599193042c93b0e73ffffffffffffffffffffffffffffffffffffffff1660e08173ffffffffffffffffffffffffffffffffffffffff16815250505061020c565b600080fd5b600073ffffffffffffffffffffffffffffffffffffffff82169050919050565b60006101ac82610181565b9050919050565b6101bc816101a1565b81146101c757600080fd5b50565b6000815190506101d9816101b3565b92915050565b6000602082840312156101f5576101f461017c565b5b6000610203848285016101ca565b91505092915050565b60805160a05160c05160e05161010051610ebb620002746000396000818161052101526105dd015260006104e5015260006105a10152600081816102b3015281816103650152818161042801528181610670015261076a015260006101950152610ebb6000f3fe6080604052600436106100735760003560e01c80636e4d243a1161004e5780636e4d243a146101105780639c35fc7014610127578063a13abdad14610153578063fa09e6301461016a5761007a565b8062f714ce1461007f5780631321a62a146100a8578063150b7a02146100d35761007a565b3661007a57005b600080fd5b34801561008b57600080fd5b506100a660048036038101906100a1919061089a565b610193565b005b3480156100b457600080fd5b506100bd6102af565b6040516100ca91906108e9565b60405180910390f35b3480156100df57600080fd5b506100fa60048036038101906100f591906109a7565b610345565b6040516101079190610a6a565b60405180910390f35b34801561011c57600080fd5b5061012561035a565b005b34801561013357600080fd5b5061013c6104e0565b60405161014a929190610a85565b60405180910390f35b34801561015f57600080fd5b5061016861065f565b005b34801561017657600080fd5b50610191600480360381019061018c9190610aae565b610661565b005b7f000000000000000000000000000000000000000000000000000000000000000073ffffffffffffffffffffffffffffffffffffffff163373ffffffffffffffffffffffffffffffffffffffff1614610221576040517f08c379a000000000000000000000000000000000000000000000000000000000815260040161021890610b38565b60405180910390fd5b81471015610264576040517f08c379a000000000000000000000000000000000000000000000000000000000815260040161025b90610ba4565b60405180910390fd5b8073ffffffffffffffffffffffffffffffffffffffff166108fc839081150290604051600060405180830381858888f193505050501580156102aa573d6000803e3d6000fd5b505050565b60007f000000000000000000000000000000000000000000000000000000000000000073ffffffffffffffffffffffffffffffffffffffff1663f7b2a7be6040518163ffffffff1660e01b8152600401602060405180830381865afa15801561031c573d6000803e3d6000fd5b505050506040513d601f19601f820116820180604052508101906103409190610bd9565b905090565b600063150b7a0260e01b905095945050505050565b6000806000806000807f000000000000000000000000000000000000000000000000000000000000000073ffffffffffffffffffffffffffffffffffffffff16637d9f6db56040518163ffffffff1660e01b815260040160c060405180830381865afa1580156103ce573d6000803e3d6000fd5b505050506040513d601f19601f820116820180604052508101906103f29190610c53565b9550955095509550955095506000841415801561040d575080155b80156104195750824210155b156104ce5761042661066e565b7f000000000000000000000000000000000000000000000000000000000000000073ffffffffffffffffffffffffffffffffffffffff16637d9f6db56040518163ffffffff1660e01b815260040160c060405180830381865afa158015610491573d6000803e3d6000fd5b505050506040513d601f19601f820116820180604052508101906104b59190610c53565b809650819750829850839950849a50859b505050505050505b6104d886866106f0565b505050505050565b6000807f000000000000000000000000000000000000000000000000000000000000000073ffffffffffffffffffffffffffffffffffffffff166370a082317f00000000000000000000000000000000000000000000000000000000000000006040518263ffffffff1660e01b815260040161055c9190610cef565b602060405180830381865afa158015610579573d6000803e3d6000fd5b505050506040513d601f19601f8201168201806040525081019061059d9190610bd9565b91507f000000000000000000000000000000000000000000000000000000000000000073ffffffffffffffffffffffffffffffffffffffff166370a082317f00000000000000000000000000000000000000000000000000000000000000006040518263ffffffff1660e01b81526004016106189190610cef565b602060405180830381865afa158015610635573d6000803e3d6000fd5b505050506040513d601f19601f820116820180604052508101906106599190610bd9565b90509091565b565b61066b4782610193565b50565b7f000000000000000000000000000000000000000000000000000000000000000073ffffffffffffffffffffffffffffffffffffffff1663f25efffc6040518163ffffffff1660e01b8152600401600060405180830381600087803b1580156106d657600080fd5b505af11580156106ea573d6000803e3d6000fd5b50505050565b60006106fa6102af565b90506000806107076104e0565b91509150600081848461071a9190610d39565b6107249190610dc2565b9050808510610768576040517f08c379a000000000000000000000000000000000000000000000000000000000815260040161075f90610e65565b60405180910390fd5b7f000000000000000000000000000000000000000000000000000000000000000073ffffffffffffffffffffffffffffffffffffffff1663659dd2b482886040518363ffffffff1660e01b81526004016107c291906108e9565b6000604051808303818588803b1580156107db57600080fd5b505af11580156107ef573d6000803e3d6000fd5b5050505050505050505050565b600080fd5b600080fd5b6000819050919050565b61081981610806565b811461082457600080fd5b50565b60008135905061083681610810565b92915050565b600073ffffffffffffffffffffffffffffffffffffffff82169050919050565b60006108678261083c565b9050919050565b6108778161085c565b811461088257600080fd5b50565b6000813590506108948161086e565b92915050565b600080604083850312156108b1576108b06107fc565b5b60006108bf85828601610827565b92505060206108d085828601610885565b9150509250929050565b6108e381610806565b82525050565b60006020820190506108fe60008301846108da565b92915050565b600061090f8261083c565b9050919050565b61091f81610904565b811461092a57600080fd5b50565b60008135905061093c81610916565b92915050565b600080fd5b600080fd5b600080fd5b60008083601f84011261096757610966610942565b5b8235905067ffffffffffffffff81111561098457610983610947565b5b6020830191508360018202830111156109a05761099f61094c565b5b9250929050565b6000806000806000608086880312156109c3576109c26107fc565b5b60006109d18882890161092d565b95505060206109e28882890161092d565b94505060406109f388828901610827565b935050606086013567ffffffffffffffff811115610a1457610a13610801565b5b610a2088828901610951565b92509250509295509295909350565b60007fffffffff0000000000000000000000000000000000000000000000000000000082169050919050565b610a6481610a2f565b82525050565b6000602082019050610a7f6000830184610a5b565b92915050565b6000604082019050610a9a60008301856108da565b610aa760208301846108da565b9392505050565b600060208284031215610ac457610ac36107fc565b5b6000610ad284828501610885565b91505092915050565b600082825260208201905092915050565b7f4e6f7420746865206f776e657200000000000000000000000000000000000000600082015250565b6000610b22600d83610adb565b9150610b2d82610aec565b602082019050919050565b60006020820190508181036000830152610b5181610b15565b9050919050565b7f4e6f7420656e6f7567682066756e647300000000000000000000000000000000600082015250565b6000610b8e601083610adb565b9150610b9982610b58565b602082019050919050565b60006020820190508181036000830152610bbd81610b81565b9050919050565b600081519050610bd381610810565b92915050565b600060208284031215610bef57610bee6107fc565b5b6000610bfd84828501610bc4565b91505092915050565b600081519050610c158161086e565b92915050565b60008115159050919050565b610c3081610c1b565b8114610c3b57600080fd5b50565b600081519050610c4d81610c27565b92915050565b60008060008060008060c08789031215610c7057610c6f6107fc565b5b6000610c7e89828a01610bc4565b9650506020610c8f89828a01610bc4565b9550506040610ca089828a01610bc4565b9450506060610cb189828a01610bc4565b9350506080610cc289828a01610c06565b92505060a0610cd389828a01610c3e565b9150509295509295509295565b610ce981610904565b82525050565b6000602082019050610d046000830184610ce0565b92915050565b7f4e487b7100000000000000000000000000000000000000000000000000000000600052601160045260246000fd5b6000610d4482610806565b9150610d4f83610806565b9250817fffffffffffffffffffffffffffffffffffffffffffffffffffffffffffffffff0483118215151615610d8857610d87610d0a565b5b828202905092915050565b7f4e487b7100000000000000000000000000000000000000000000000000000000600052601260045260246000fd5b6000610dcd82610806565b9150610dd883610806565b925082610de857610de7610d93565b5b828204905092915050565b7f7265766572743a2062696420616c726561647920686967686572207468616e2060008201527f7265736572766520707269636500000000000000000000000000000000000000602082015250565b6000610e4f602d83610adb565b9150610e5a82610df3565b604082019050919050565b60006020820190508181036000830152610e7e81610e42565b905091905056fea26469706673582212207600dd2155831ff6127ec7325734994141fefe554fd59659b0051981e1e298c164736f6c634300080c0033",
  "immutableReferences": {
    "1662": [
      {
        "length": 32,
        "start": 405
      }
    ],
    "1665": [
      {
        "length": 32,
        "start": 691
      },
      {
        "length": 32,
        "start": 869
      },
      {
        "length": 32,
        "start": 1064
      },
      {
        "length": 32,
        "start": 1648
      },
      {
        "length": 32,
        "start": 1898
      }
    ],
    "1667": [
      {
        "length": 32,
        "start": 1441
      }
    ],
    "1669": [
      {
        "length": 32,
        "start": 1253
      }
    ],
    "1671": [
      {
        "length": 32,
        "start": 1313
      },
      {
        "length": 32,
        "start": 1501
      }
    ]
  },
  "source": "// SPDX-License-Identifier: GNU General Public License v3.0\r\npragma solidity ^0.8.12;\r\n\r\n//import fluid auction interface\r\nimport \"fluiddao/contracts/interfaces/IAuctionHouse.sol\";\r\nimport \"fluiddao/contracts/AuctionHouse.sol\";\r\n\r\n//ERC721 receiver\r\nimport \"@openzeppelin/contracts/token/ERC721/IERC721Receiver.sol\";\r\n\r\n//import Uniswap data\r\nimport \"@uniswap/v2-core/contracts/interfaces/IUniswapV2Pair.sol\";\r\n\r\nimport \"@openzeppelin/contracts/token/ERC20/IERC20.sol\";\r\n\r\ncontract AuctionBidder {\r\n\t\r\n\taddress immutable owner;\r\n\tAuctionHouse immutable auctionHouse;\r\n\taddress immutable WETH2;\r\n\taddress immutable FLUID;\r\n\taddress immutable sushiPool;\r\n\r\n\t///goerli sushiSwap pair address 0xd33c0bf246902ff4C87FA52C32F01aB0126Fda15\r\n\tconstructor(\r\n\t\taddress auctionHouseAddress\r\n\t) {\r\n\t\towner = msg.sender;\r\n\t\tauctionHouse = AuctionHouse(auctionHouseAddress);\r\n\t\tsushiPool = address(0xd33c0bf246902ff4C87FA52C32F01aB0126Fda15);\r\n\t\tWETH2 = address(0xB4FBF271143F4FBf7B91A5ded31805e42b2208d6);\r\n\t\tFLUID = address(0xBa01a0552C37036168b120165599193042c93B0E);\r\n\t}\r\n\r\n\tfunction onERC721Received(address, address, uint256, bytes calldata) external pure returns (bytes4) {\r\n        return IERC721Receiver.onERC721Received.selector;\r\n    }\r\n\t/*\r\n\tfunction topUp() public payable{\r\n\t\t\r\n\t}\r\n\t*/\r\n\t\r\n\tfunction withdraw(uint256 _amount, address payable recipient) public {\r\n\t\trequire(msg.sender == owner, \"Not the owner\");\r\n\t\trequire(address(this).balance >= _amount, \"Not enough funds\");\r\n\t\trecipient.transfer(_amount);\r\n\t}\r\n\r\n\tfunction withdrawAll(address payable recipient) public {\r\n\t\twithdraw(address(this).balance, recipient);\r\n\t}\r\n\r\n\t\r\n\r\n\t//returns the price in ETH of a FLUID token\r\n\tfunction getSushiPoolBalances() \r\n\tpublic \r\n\tview \r\n\treturns (\r\n\t\tuint256 currentSushiReservesFluid,\r\n\t\tuint256 currentSushiReservesWeth\r\n\t){\r\n\t\tcurrentSushiReservesFluid = IERC20(FLUID).balanceOf(sushiPool);\r\n\t\tcurrentSushiReservesWeth = IERC20(WETH2).balanceOf(sushiPool);\r\n\t}\r\n\r\n\tfunction getFluidClaim() public view returns (\r\n\t\tuint256 claim\r\n\t){\r\n\t\tclaim = auctionHouse.rewardAmount(); //returns the current reward amount with a 18 decimals\r\n\t}\r\n\r\n\tfunction checkUpkeep() public view {\r\n\t\t//checkUpkeep returns true if\r\n\t\t// 1. auction is expired and needs to be settled\r\n\t\t// 2. Or new auction has been created and current bid price is lower than reserve price\r\n\t\t\r\n\t}\r\n\r\n\tfunction performUpkeep() public {\r\n\t\t(\r\n\t\t\tuint256 _FLUIDnftId,\r\n\t\t\tuint256 _amount,\r\n\t\t\tuint256 _startTime,\r\n\t\t\tuint256 _endTime,\r\n\t\t\taddress payable _bidder,\r\n\t\t\tbool _settled\r\n\t\t) = auctionHouse.auction();\r\n\t\t\r\n\t\tif(\r\n\t\t\t_startTime != 0\r\n\t\t\t&& !_settled\r\n\t\t\t&& block.timestamp >= _endTime\r\n\t\t){\r\n\t\t\tsettleCurrent();\r\n\t\t\t//update auction parameters after settling and creating new\r\n\t\t\t(\r\n\t\t\t\t_FLUIDnftId,\r\n\t\t\t\t_amount,\r\n\t\t\t\t_startTime,\r\n\t\t\t\t_endTime,\r\n\t\t\t\t_bidder,\r\n\t\t\t\t_settled\r\n\t\t\t) = auctionHouse.auction();\r\n\t\t}\r\n\r\n\t\tbidFloor(_FLUIDnftId, _amount);\r\n\t}\r\n\r\n\tfunction bidFloor(uint256 FLUIDnftId, uint256 currentBid) private{\r\n\t\t//compute bid floor price\r\n\t\tuint256 fluidClaim = getFluidClaim();\r\n\t\t(\r\n\t\t\tuint256 currentSushiReservesFluid,\r\n\t\t\tuint256 currentSushiReservesWeth\r\n\t\t) = getSushiPoolBalances();\r\n\r\n\t\tuint256 bidValue = currentSushiReservesFluid * fluidClaim / currentSushiReservesWeth;\r\n\r\n\t\t//need to check if (1) possible to bid lower than current highest and (2) possible to remove bid\r\n\t\t//To prevent the program from not bidding because current bid is higher -> current bid gets removed -> malicious user profits\r\n\t\trequire(currentBid < bidValue, \"revert: bid already higher than reserve price\");\r\n\t\tauctionHouse.createBid{value: bidValue}(FLUIDnftId);\r\n\t}\r\n\r\n\tfunction settleCurrent() private {\r\n\t\tauctionHouse.settleCurrentAndCreateNewAuction();\r\n\t}\r\n\t\r\n\t\r\n\t/*as a reminder\r\n\tfunction getCurrentAuction() public{\r\n\t\treturn auctionHouse.auction();\r\n\t}*/\r\n\r\n\r\n\treceive() external payable {\r\n    }\r\n\r\n}",
  "sourcePath": "C:\\Users\\LeoDu\\source\\repos\\FluidAuctionBidder\\contracts\\AuctionBidder.sol",
  "compiler": {
    "name": "solc",
    "version": "0.8.12+commit.f00d7308.Emscripten.clang"
  },
  "schemaVersion": "3.4.10",
  "updatedAt": "2023-02-03T13:48:40.887Z",
  "devdoc": {
    "kind": "dev",
    "methods": {},
    "version": 1
  },
  "userdoc": {
    "kind": "user",
    "methods": {
      "constructor": {
        "notice": "goerli sushiSwap pair address 0xd33c0bf246902ff4C87FA52C32F01aB0126Fda15"
      }
    },
    "version": 1
  }
}