{
  "contractName": "AuctionHouse",
  "abi": [
    {
      "inputs": [
        {
          "internalType": "contract IFLUIDnft",
          "name": "_FLUIDnft",
          "type": "address"
        },
        {
          "internalType": "contract IFLUIDtoken",
          "name": "_FLUIDtoken",
          "type": "address"
        },
        {
          "internalType": "address",
          "name": "_dao",
          "type": "address"
        },
        {
          "internalType": "address",
          "name": "_weth",
          "type": "address"
        },
        {
          "internalType": "uint256",
          "name": "_timeBuffer",
          "type": "uint256"
        },
        {
          "internalType": "uint256",
          "name": "_reservePrice",
          "type": "uint256"
        },
        {
          "internalType": "uint8",
          "name": "_minBidIncrementPercentage",
          "type": "uint8"
        },
        {
          "internalType": "uint256",
          "name": "_duration",
          "type": "uint256"
        }
      ],
      "stateMutability": "nonpayable",
      "type": "constructor"
    },
    {
      "anonymous": false,
      "inputs": [
        {
          "indexed": true,
          "internalType": "uint256",
          "name": "FLUIDnftId",
          "type": "uint256"
        },
        {
          "indexed": false,
          "internalType": "address",
          "name": "sender",
          "type": "address"
        },
        {
          "indexed": false,
          "internalType": "uint256",
          "name": "value",
          "type": "uint256"
        },
        {
          "indexed": false,
          "internalType": "bool",
          "name": "extended",
          "type": "bool"
        }
      ],
      "name": "AuctionBid",
      "type": "event"
    },
    {
      "anonymous": false,
      "inputs": [
        {
          "indexed": true,
          "internalType": "uint256",
          "name": "FLUIDnftId",
          "type": "uint256"
        },
        {
          "indexed": false,
          "internalType": "uint256",
          "name": "startTime",
          "type": "uint256"
        },
        {
          "indexed": false,
          "internalType": "uint256",
          "name": "endTime",
          "type": "uint256"
        }
      ],
      "name": "AuctionCreated",
      "type": "event"
    },
    {
      "anonymous": false,
      "inputs": [
        {
          "indexed": false,
          "internalType": "uint256",
          "name": "duration",
          "type": "uint256"
        }
      ],
      "name": "AuctionDurationUpdated",
      "type": "event"
    },
    {
      "anonymous": false,
      "inputs": [
        {
          "indexed": true,
          "internalType": "uint256",
          "name": "FLUIDnftId",
          "type": "uint256"
        },
        {
          "indexed": false,
          "internalType": "uint256",
          "name": "endTime",
          "type": "uint256"
        }
      ],
      "name": "AuctionExtended",
      "type": "event"
    },
    {
      "anonymous": false,
      "inputs": [
        {
          "indexed": false,
          "internalType": "uint256",
          "name": "minBidIncrementPercentage",
          "type": "uint256"
        }
      ],
      "name": "AuctionMinBidIncrementPercentageUpdated",
      "type": "event"
    },
    {
      "anonymous": false,
      "inputs": [
        {
          "indexed": false,
          "internalType": "uint256",
          "name": "reservePrice",
          "type": "uint256"
        }
      ],
      "name": "AuctionReservePriceUpdated",
      "type": "event"
    },
    {
      "anonymous": false,
      "inputs": [
        {
          "indexed": true,
          "internalType": "uint256",
          "name": "FLUIDnftId",
          "type": "uint256"
        },
        {
          "indexed": false,
          "internalType": "address",
          "name": "winner",
          "type": "address"
        },
        {
          "indexed": false,
          "internalType": "uint256",
          "name": "amount",
          "type": "uint256"
        }
      ],
      "name": "AuctionSettled",
      "type": "event"
    },
    {
      "anonymous": false,
      "inputs": [
        {
          "indexed": false,
          "internalType": "uint256",
          "name": "timeBuffer",
          "type": "uint256"
        }
      ],
      "name": "AuctionTimeBufferUpdated",
      "type": "event"
    },
    {
      "anonymous": false,
      "inputs": [
        {
          "indexed": true,
          "internalType": "address",
          "name": "previousOwner",
          "type": "address"
        },
        {
          "indexed": true,
          "internalType": "address",
          "name": "newOwner",
          "type": "address"
        }
      ],
      "name": "OwnershipTransferred",
      "type": "event"
    },
    {
      "anonymous": false,
      "inputs": [
        {
          "indexed": false,
          "internalType": "address",
          "name": "account",
          "type": "address"
        }
      ],
      "name": "Paused",
      "type": "event"
    },
    {
      "anonymous": false,
      "inputs": [
        {
          "indexed": false,
          "internalType": "address",
          "name": "account",
          "type": "address"
        }
      ],
      "name": "Unpaused",
      "type": "event"
    },
    {
      "inputs": [],
      "name": "FLUIDnft",
      "outputs": [
        {
          "internalType": "contract IFLUIDnft",
          "name": "",
          "type": "address"
        }
      ],
      "stateMutability": "view",
      "type": "function"
    },
    {
      "inputs": [],
      "name": "FLUIDtoken",
      "outputs": [
        {
          "internalType": "contract IFLUIDtoken",
          "name": "",
          "type": "address"
        }
      ],
      "stateMutability": "view",
      "type": "function"
    },
    {
      "inputs": [],
      "name": "auction",
      "outputs": [
        {
          "internalType": "uint256",
          "name": "FLUIDnftId",
          "type": "uint256"
        },
        {
          "internalType": "uint256",
          "name": "amount",
          "type": "uint256"
        },
        {
          "internalType": "uint256",
          "name": "startTime",
          "type": "uint256"
        },
        {
          "internalType": "uint256",
          "name": "endTime",
          "type": "uint256"
        },
        {
          "internalType": "address payable",
          "name": "bidder",
          "type": "address"
        },
        {
          "internalType": "bool",
          "name": "settled",
          "type": "bool"
        }
      ],
      "stateMutability": "view",
      "type": "function"
    },
    {
      "inputs": [],
      "name": "dao",
      "outputs": [
        {
          "internalType": "address",
          "name": "",
          "type": "address"
        }
      ],
      "stateMutability": "view",
      "type": "function"
    },
    {
      "inputs": [],
      "name": "duration",
      "outputs": [
        {
          "internalType": "uint256",
          "name": "",
          "type": "uint256"
        }
      ],
      "stateMutability": "view",
      "type": "function"
    },
    {
      "inputs": [],
      "name": "minBidIncrementPercentage",
      "outputs": [
        {
          "internalType": "uint8",
          "name": "",
          "type": "uint8"
        }
      ],
      "stateMutability": "view",
      "type": "function"
    },
    {
      "inputs": [],
      "name": "owner",
      "outputs": [
        {
          "internalType": "address",
          "name": "",
          "type": "address"
        }
      ],
      "stateMutability": "view",
      "type": "function"
    },
    {
      "inputs": [],
      "name": "paused",
      "outputs": [
        {
          "internalType": "bool",
          "name": "",
          "type": "bool"
        }
      ],
      "stateMutability": "view",
      "type": "function"
    },
    {
      "inputs": [],
      "name": "renounceOwnership",
      "outputs": [],
      "stateMutability": "nonpayable",
      "type": "function"
    },
    {
      "inputs": [],
      "name": "reservePrice",
      "outputs": [
        {
          "internalType": "uint256",
          "name": "",
          "type": "uint256"
        }
      ],
      "stateMutability": "view",
      "type": "function"
    },
    {
      "inputs": [],
      "name": "rewardAmount",
      "outputs": [
        {
          "internalType": "uint256",
          "name": "",
          "type": "uint256"
        }
      ],
      "stateMutability": "view",
      "type": "function"
    },
    {
      "inputs": [],
      "name": "timeBuffer",
      "outputs": [
        {
          "internalType": "uint256",
          "name": "",
          "type": "uint256"
        }
      ],
      "stateMutability": "view",
      "type": "function"
    },
    {
      "inputs": [
        {
          "internalType": "address",
          "name": "newOwner",
          "type": "address"
        }
      ],
      "name": "transferOwnership",
      "outputs": [],
      "stateMutability": "nonpayable",
      "type": "function"
    },
    {
      "inputs": [],
      "name": "weth",
      "outputs": [
        {
          "internalType": "address",
          "name": "",
          "type": "address"
        }
      ],
      "stateMutability": "view",
      "type": "function"
    },
    {
      "inputs": [
        {
          "internalType": "uint256",
          "name": "_timeBuffer",
          "type": "uint256"
        }
      ],
      "name": "setTimeBuffer",
      "outputs": [],
      "stateMutability": "nonpayable",
      "type": "function"
    },
    {
      "inputs": [
        {
          "internalType": "uint256",
          "name": "_reservePrice",
          "type": "uint256"
        }
      ],
      "name": "setReservePrice",
      "outputs": [],
      "stateMutability": "nonpayable",
      "type": "function"
    },
    {
      "inputs": [
        {
          "internalType": "uint8",
          "name": "_minBidIncrementPercentage",
          "type": "uint8"
        }
      ],
      "name": "setMinBidIncrementPercentage",
      "outputs": [],
      "stateMutability": "nonpayable",
      "type": "function"
    },
    {
      "inputs": [],
      "name": "settleCurrentAndCreateNewAuction",
      "outputs": [],
      "stateMutability": "nonpayable",
      "type": "function"
    },
    {
      "inputs": [],
      "name": "settleAuction",
      "outputs": [],
      "stateMutability": "nonpayable",
      "type": "function"
    },
    {
      "inputs": [
        {
          "internalType": "uint256",
          "name": "FLUIDnftId",
          "type": "uint256"
        }
      ],
      "name": "createBid",
      "outputs": [],
      "stateMutability": "payable",
      "type": "function"
    },
    {
      "inputs": [],
      "name": "pause",
      "outputs": [],
      "stateMutability": "nonpayable",
      "type": "function"
    },
    {
      "inputs": [],
      "name": "unpause",
      "outputs": [],
      "stateMutability": "nonpayable",
      "type": "function"
    },
    {
      "inputs": [
        {
          "internalType": "address",
          "name": "_operator",
          "type": "address"
        },
        {
          "internalType": "address",
          "name": "_from",
          "type": "address"
        },
        {
          "internalType": "uint256",
          "name": "_tokenId",
          "type": "uint256"
        },
        {
          "internalType": "bytes",
          "name": "_data",
          "type": "bytes"
        }
      ],
      "name": "onERC721Received",
      "outputs": [
        {
          "internalType": "bytes4",
          "name": "",
          "type": "bytes4"
        }
      ],
      "stateMutability": "nonpayable",
      "type": "function"
    }
  ],
  "bytecode": "0x6080604052683635c9adc5dea000006010553480156200001e57600080fd5b5060405162002f6338038062002f638339818101604052810190620000449190620004f1565b60008060006101000a81548160ff021916908315150217905550600180819055506200008562000079620001d760201b60201c565b620001df60201b60201c565b87600360006101000a81548173ffffffffffffffffffffffffffffffffffffffff021916908373ffffffffffffffffffffffffffffffffffffffff16021790555086600e60006101000a81548173ffffffffffffffffffffffffffffffffffffffff021916908373ffffffffffffffffffffffffffffffffffffffff16021790555085600f60006101000a81548173ffffffffffffffffffffffffffffffffffffffff021916908373ffffffffffffffffffffffffffffffffffffffff16021790555084600460006101000a81548173ffffffffffffffffffffffffffffffffffffffff021916908373ffffffffffffffffffffffffffffffffffffffff160217905550836005819055508260068190555081600760006101000a81548160ff021916908360ff16021790555080600881905550620001c9620002a560201b60201c565b50505050505050506200066b565b600033905090565b6000600260009054906101000a900473ffffffffffffffffffffffffffffffffffffffff16905081600260006101000a81548173ffffffffffffffffffffffffffffffffffffffff021916908373ffffffffffffffffffffffffffffffffffffffff1602179055508173ffffffffffffffffffffffffffffffffffffffff168173ffffffffffffffffffffffffffffffffffffffff167f8be0079c531659141344cd1fd0a4f28419497f9722a3daafe3b4186f6b6457e060405160405180910390a35050565b620002b56200031960201b60201c565b60016000806101000a81548160ff0219169083151502179055507f62e78cea01bee320cd4e420270b5ea74000d11b0c9f74754ebdbfc544b05a25862000300620001d760201b60201c565b6040516200030f9190620005cb565b60405180910390a1565b620003296200036e60201b60201c565b156200036c576040517f08c379a0000000000000000000000000000000000000000000000000000000008152600401620003639062000649565b60405180910390fd5b565b60008060009054906101000a900460ff16905090565b600080fd5b600073ffffffffffffffffffffffffffffffffffffffff82169050919050565b6000620003b68262000389565b9050919050565b6000620003ca82620003a9565b9050919050565b620003dc81620003bd565b8114620003e857600080fd5b50565b600081519050620003fc81620003d1565b92915050565b60006200040f82620003a9565b9050919050565b620004218162000402565b81146200042d57600080fd5b50565b600081519050620004418162000416565b92915050565b6200045281620003a9565b81146200045e57600080fd5b50565b600081519050620004728162000447565b92915050565b6000819050919050565b6200048d8162000478565b81146200049957600080fd5b50565b600081519050620004ad8162000482565b92915050565b600060ff82169050919050565b620004cb81620004b3565b8114620004d757600080fd5b50565b600081519050620004eb81620004c0565b92915050565b600080600080600080600080610100898b03121562000515576200051462000384565b5b6000620005258b828c01620003eb565b9850506020620005388b828c0162000430565b97505060406200054b8b828c0162000461565b96505060606200055e8b828c0162000461565b9550506080620005718b828c016200049c565b94505060a0620005848b828c016200049c565b93505060c0620005978b828c01620004da565b92505060e0620005aa8b828c016200049c565b9150509295985092959890939650565b620005c581620003a9565b82525050565b6000602082019050620005e26000830184620005ba565b92915050565b600082825260208201905092915050565b7f5061757361626c653a2070617573656400000000000000000000000000000000600082015250565b600062000631601083620005e8565b91506200063e82620005f9565b602082019050919050565b60006020820190508181036000830152620006648162000622565b9050919050565b6128e8806200067b6000396000f3fe6080604052600436106101405760003560e01c8063715018a6116100b6578063ce9c7c0d1161006f578063ce9c7c0d146103d4578063db2e1eed146103fd578063ec91f2a414610428578063f25efffc14610453578063f2fde38b1461046a578063f7b2a7be1461049357610140565b8063715018a6146103095780637d9f6db5146103205780638456cb59146103505780638da5cb5b14610367578063a4d0a17e14610392578063b296024d146103a957610140565b80633fc8cef3116101085780633fc8cef31461021857806341558930146102435780634162169f1461026e5780635c975abb14610299578063659dd2b4146102c45780637120334b146102e057610140565b80630fb5a6b414610145578063150b7a021461017057806328142bd6146101ad57806336ebdb38146101d85780633f4ba83a14610201575b600080fd5b34801561015157600080fd5b5061015a6104be565b604051610167919061196b565b60405180910390f35b34801561017c57600080fd5b5061019760048036038101906101929190611a89565b6104c4565b6040516101a49190611b4c565b60405180910390f35b3480156101b957600080fd5b506101c26104d9565b6040516101cf9190611bc6565b60405180910390f35b3480156101e457600080fd5b506101ff60048036038101906101fa9190611c1a565b6104ff565b005b34801561020d57600080fd5b5061021661055c565b005b34801561022457600080fd5b5061022d61059f565b60405161023a9190611c56565b60405180910390f35b34801561024f57600080fd5b506102586105c5565b6040516102659190611c92565b60405180910390f35b34801561027a57600080fd5b506102836105eb565b6040516102909190611c56565b60405180910390f35b3480156102a557600080fd5b506102ae610611565b6040516102bb9190611cc8565b60405180910390f35b6102de60048036038101906102d99190611ce3565b610627565b005b3480156102ec57600080fd5b5061030760048036038101906103029190611ce3565b6109a2565b005b34801561031557600080fd5b5061031e6109eb565b005b34801561032c57600080fd5b506103356109ff565b60405161034796959493929190611d31565b60405180910390f35b34801561035c57600080fd5b50610365610a56565b005b34801561037357600080fd5b5061037c610a68565b6040516103899190611c56565b60405180910390f35b34801561039e57600080fd5b506103a7610a92565b005b3480156103b557600080fd5b506103be610ab4565b6040516103cb9190611da1565b60405180910390f35b3480156103e057600080fd5b506103fb60048036038101906103f69190611ce3565b610ac7565b005b34801561040957600080fd5b50610412610b10565b60405161041f919061196b565b60405180910390f35b34801561043457600080fd5b5061043d610b16565b60405161044a919061196b565b60405180910390f35b34801561045f57600080fd5b50610468610b1c565b005b34801561047657600080fd5b50610491600480360381019061048c9190611dbc565b610b46565b005b34801561049f57600080fd5b506104a8610bca565b6040516104b5919061196b565b60405180910390f35b60085481565b600063150b7a0260e01b905095945050505050565b600360009054906101000a900473ffffffffffffffffffffffffffffffffffffffff1681565b610507610bd0565b80600760006101000a81548160ff021916908360ff1602179055507fec5ccd96cc77b6219e9d44143df916af68fc169339ea7de5008ff15eae13450d816040516105519190611e1a565b60405180910390a150565b610564610bd0565b61056c610c4e565b6000600960020154148061058f5750600960040160149054906101000a900460ff165b1561059d5761059c610cb0565b5b565b600460009054906101000a900473ffffffffffffffffffffffffffffffffffffffff1681565b600e60009054906101000a900473ffffffffffffffffffffffffffffffffffffffff1681565b600f60009054906101000a900473ffffffffffffffffffffffffffffffffffffffff1681565b60008060009054906101000a900460ff16905090565b61062f61112e565b600060096040518060c0016040529081600082015481526020016001820154815260200160028201548152602001600382015481526020016004820160009054906101000a900473ffffffffffffffffffffffffffffffffffffffff1673ffffffffffffffffffffffffffffffffffffffff1673ffffffffffffffffffffffffffffffffffffffff1681526020016004820160149054906101000a900460ff16151515158152505090508181600001511461071f576040517f08c379a000000000000000000000000000000000000000000000000000000000815260040161071690611e92565b60405180910390fd5b80606001514210610765576040517f08c379a000000000000000000000000000000000000000000000000000000000815260040161075c90611efe565b60405180910390fd5b60003490506006548110156107af576040517f08c379a00000000000000000000000000000000000000000000000000000000081526004016107a690611f6a565b60405180910390fd5b6064600760009054906101000a900460ff1660ff1683602001516107d39190611fb9565b6107dd9190612042565b82602001516107ec9190612073565b81101561082e576040517f08c379a00000000000000000000000000000000000000000000000000000000081526004016108259061213b565b60405180910390fd5b600082608001519050600083602001519050600073ffffffffffffffffffffffffffffffffffffffff168273ffffffffffffffffffffffffffffffffffffffff161461087f5761087e828261117e565b5b8260096001018190555033600960040160006101000a81548173ffffffffffffffffffffffffffffffffffffffff021916908373ffffffffffffffffffffffffffffffffffffffff16021790555060006005544286606001516108e2919061215b565b109050801561090b57600554426108f99190612073565b85606001818152506009600301819055505b84600001517f1159164c56f277e6fc99c11731bd380e0347deb969b75523398734c252706ea33386846040516109439392919061218f565b60405180910390a280156109925784600001517f6e912a3a9105bdd2af817ba5adc14e6c127c1035b5b648faa29ca0d58ab8ff4e8660600151604051610989919061196b565b60405180910390a25b505050505061099f6112b5565b50565b6109aa610bd0565b806005819055507f1b55d9f7002bda4490f467e326f22a4a847629c0f2d1ed421607d318d25b410d816040516109e0919061196b565b60405180910390a150565b6109f3610bd0565b6109fd60006112be565b565b60098060000154908060010154908060020154908060030154908060040160009054906101000a900473ffffffffffffffffffffffffffffffffffffffff16908060040160149054906101000a900460ff16905086565b610a5e610bd0565b610a66611384565b565b6000600260009054906101000a900473ffffffffffffffffffffffffffffffffffffffff16905090565b610a9a6113e6565b610aa261112e565b610aaa61142f565b610ab26112b5565b565b600760009054906101000a900460ff1681565b610acf610bd0565b806006819055507f6ab2e127d7fdf53b8f304e59d3aab5bfe97979f52a85479691a6fab27a28a6b281604051610b05919061196b565b60405180910390a150565b60065481565b60055481565b610b2461112e565b610b2c611835565b610b3461142f565b610b3c610cb0565b610b446112b5565b565b610b4e610bd0565b600073ffffffffffffffffffffffffffffffffffffffff168173ffffffffffffffffffffffffffffffffffffffff161415610bbe576040517f08c379a0000000000000000000000000000000000000000000000000000000008152600401610bb590612238565b60405180910390fd5b610bc7816112be565b50565b60105481565b610bd861187f565b73ffffffffffffffffffffffffffffffffffffffff16610bf6610a68565b73ffffffffffffffffffffffffffffffffffffffff1614610c4c576040517f08c379a0000000000000000000000000000000000000000000000000000000008152600401610c43906122a4565b60405180910390fd5b565b610c566113e6565b60008060006101000a81548160ff0219169083151502179055507f5db9ee0a495bf2e6ff9c91a7834c1ba4fdd244a5e8aa4e537bd38aeae4b073aa610c9961187f565b604051610ca69190611c56565b60405180910390a1565b60006001600360009054906101000a900473ffffffffffffffffffffffffffffffffffffffff1673ffffffffffffffffffffffffffffffffffffffff166318160ddd6040518163ffffffff1660e01b8152600401602060405180830381865afa158015610d21573d6000803e3d6000fd5b505050506040513d601f19601f82011682018060405250810190610d4591906122d9565b610d4f9190612073565b90506000600a82610d609190612306565b1415610f1857600360009054906101000a900473ffffffffffffffffffffffffffffffffffffffff1673ffffffffffffffffffffffffffffffffffffffff16636a627842600f60009054906101000a900473ffffffffffffffffffffffffffffffffffffffff166040518263ffffffff1660e01b8152600401610de39190611c56565b6020604051808303816000875af1158015610e02573d6000803e3d6000fd5b505050506040513d601f19601f82011682018060405250810190610e2691906122d9565b50600060c882610e369190612306565b1415610e6457600a601054610e4b9190612042565b60106000828254610e5c919061215b565b925050819055505b600e60009054906101000a900473ffffffffffffffffffffffffffffffffffffffff1673ffffffffffffffffffffffffffffffffffffffff166340c10f19600f60009054906101000a900473ffffffffffffffffffffffffffffffffffffffff166010546040518363ffffffff1660e01b8152600401610ee5929190612337565b600060405180830381600087803b158015610eff57600080fd5b505af1158015610f13573d6000803e3d6000fd5b505050505b600360009054906101000a900473ffffffffffffffffffffffffffffffffffffffff1673ffffffffffffffffffffffffffffffffffffffff16636a627842306040518263ffffffff1660e01b8152600401610f739190611c56565b6020604051808303816000875af1925050508015610faf57506040513d601f19601f82011682018060405250810190610fac91906122d9565b60015b610ffa57610fbb61236d565b806308c379a01415610fe95750610fd0612400565b80610fdb5750610feb565b610fe3611384565b50610ff5565b505b3d6000803e3d6000fd5b61112b565b600042905060006008548261100f9190612073565b90506040518060c0016040528084815260200160008152602001838152602001828152602001600073ffffffffffffffffffffffffffffffffffffffff1681526020016000151581525060096000820151816000015560208201518160010155604082015181600201556060820151816003015560808201518160040160006101000a81548173ffffffffffffffffffffffffffffffffffffffff021916908373ffffffffffffffffffffffffffffffffffffffff16021790555060a08201518160040160146101000a81548160ff021916908315150217905550905050827fd6eddd1118d71820909c1197aa966dbc15ed6f508554252169cc3d5ccac756ca838360405161111f929190612496565b60405180910390a25050505b50565b60026001541415611174576040517f08c379a000000000000000000000000000000000000000000000000000000000815260040161116b9061250b565b60405180910390fd5b6002600181905550565b6111888282611887565b6112b157600460009054906101000a900473ffffffffffffffffffffffffffffffffffffffff1673ffffffffffffffffffffffffffffffffffffffff1663d0e30db0826040518263ffffffff1660e01b81526004016000604051808303818588803b1580156111f657600080fd5b505af115801561120a573d6000803e3d6000fd5b5050505050600460009054906101000a900473ffffffffffffffffffffffffffffffffffffffff1673ffffffffffffffffffffffffffffffffffffffff1663a9059cbb83836040518363ffffffff1660e01b815260040161126c929190612337565b6020604051808303816000875af115801561128b573d6000803e3d6000fd5b505050506040513d601f19601f820116820180604052508101906112af9190612557565b505b5050565b60018081905550565b6000600260009054906101000a900473ffffffffffffffffffffffffffffffffffffffff16905081600260006101000a81548173ffffffffffffffffffffffffffffffffffffffff021916908373ffffffffffffffffffffffffffffffffffffffff1602179055508173ffffffffffffffffffffffffffffffffffffffff168173ffffffffffffffffffffffffffffffffffffffff167f8be0079c531659141344cd1fd0a4f28419497f9722a3daafe3b4186f6b6457e060405160405180910390a35050565b61138c611835565b60016000806101000a81548160ff0219169083151502179055507f62e78cea01bee320cd4e420270b5ea74000d11b0c9f74754ebdbfc544b05a2586113cf61187f565b6040516113dc9190611c56565b60405180910390a1565b6113ee610611565b61142d576040517f08c379a0000000000000000000000000000000000000000000000000000000008152600401611424906125d0565b60405180910390fd5b565b600060096040518060c0016040529081600082015481526020016001820154815260200160028201548152602001600382015481526020016004820160009054906101000a900473ffffffffffffffffffffffffffffffffffffffff1673ffffffffffffffffffffffffffffffffffffffff1673ffffffffffffffffffffffffffffffffffffffff1681526020016004820160149054906101000a900460ff1615151515815250509050600081604001511415611521576040517f08c379a00000000000000000000000000000000000000000000000000000000081526004016115189061263c565b60405180910390fd5b8060a0015115611566576040517f08c379a000000000000000000000000000000000000000000000000000000000815260040161155d906126a8565b60405180910390fd5b80606001514210156115ad576040517f08c379a00000000000000000000000000000000000000000000000000000000081526004016115a490612714565b60405180910390fd5b6001600960040160146101000a81548160ff021916908315150217905550600073ffffffffffffffffffffffffffffffffffffffff16816080015173ffffffffffffffffffffffffffffffffffffffff16141561169a57600360009054906101000a900473ffffffffffffffffffffffffffffffffffffffff1673ffffffffffffffffffffffffffffffffffffffff166342966c6882600001516040518263ffffffff1660e01b8152600401611663919061196b565b600060405180830381600087803b15801561167d57600080fd5b505af1158015611691573d6000803e3d6000fd5b505050506117c9565b600360009054906101000a900473ffffffffffffffffffffffffffffffffffffffff1673ffffffffffffffffffffffffffffffffffffffff166323b872dd30836080015184600001516040518463ffffffff1660e01b815260040161170193929190612755565b600060405180830381600087803b15801561171b57600080fd5b505af115801561172f573d6000803e3d6000fd5b50505050600e60009054906101000a900473ffffffffffffffffffffffffffffffffffffffff1673ffffffffffffffffffffffffffffffffffffffff166340c10f1982608001516010546040518363ffffffff1660e01b815260040161179692919061278c565b600060405180830381600087803b1580156117b057600080fd5b505af11580156117c4573d6000803e3d6000fd5b505050505b6000816020015111156117ec576117eb6117e1610a68565b826020015161117e565b5b80600001517fc9f72b276a388619c6d185d146697036241880c36654b1a3ffdad07c24038d998260800151836020015160405161182a92919061278c565b60405180910390a250565b61183d610611565b1561187d576040517f08c379a000000000000000000000000000000000000000000000000000000000815260040161187490612801565b60405180910390fd5b565b600033905090565b6000808373ffffffffffffffffffffffffffffffffffffffff168361753090600067ffffffffffffffff8111156118c1576118c06123a0565b5b6040519080825280601f01601f1916602001820160405280156118f35781602001600182028036833780820191505090505b50604051611901919061289b565b600060405180830381858888f193505050503d806000811461193f576040519150601f19603f3d011682016040523d82523d6000602084013e611944565b606091505b505090508091505092915050565b6000819050919050565b61196581611952565b82525050565b6000602082019050611980600083018461195c565b92915050565b6000604051905090565b600080fd5b600080fd5b600073ffffffffffffffffffffffffffffffffffffffff82169050919050565b60006119c58261199a565b9050919050565b6119d5816119ba565b81146119e057600080fd5b50565b6000813590506119f2816119cc565b92915050565b611a0181611952565b8114611a0c57600080fd5b50565b600081359050611a1e816119f8565b92915050565b600080fd5b600080fd5b600080fd5b60008083601f840112611a4957611a48611a24565b5b8235905067ffffffffffffffff811115611a6657611a65611a29565b5b602083019150836001820283011115611a8257611a81611a2e565b5b9250929050565b600080600080600060808688031215611aa557611aa4611990565b5b6000611ab3888289016119e3565b9550506020611ac4888289016119e3565b9450506040611ad588828901611a0f565b935050606086013567ffffffffffffffff811115611af657611af5611995565b5b611b0288828901611a33565b92509250509295509295909350565b60007fffffffff0000000000000000000000000000000000000000000000000000000082169050919050565b611b4681611b11565b82525050565b6000602082019050611b616000830184611b3d565b92915050565b6000819050919050565b6000611b8c611b87611b828461199a565b611b67565b61199a565b9050919050565b6000611b9e82611b71565b9050919050565b6000611bb082611b93565b9050919050565b611bc081611ba5565b82525050565b6000602082019050611bdb6000830184611bb7565b92915050565b600060ff82169050919050565b611bf781611be1565b8114611c0257600080fd5b50565b600081359050611c1481611bee565b92915050565b600060208284031215611c3057611c2f611990565b5b6000611c3e84828501611c05565b91505092915050565b611c50816119ba565b82525050565b6000602082019050611c6b6000830184611c47565b92915050565b6000611c7c82611b93565b9050919050565b611c8c81611c71565b82525050565b6000602082019050611ca76000830184611c83565b92915050565b60008115159050919050565b611cc281611cad565b82525050565b6000602082019050611cdd6000830184611cb9565b92915050565b600060208284031215611cf957611cf8611990565b5b6000611d0784828501611a0f565b91505092915050565b6000611d1b8261199a565b9050919050565b611d2b81611d10565b82525050565b600060c082019050611d46600083018961195c565b611d53602083018861195c565b611d60604083018761195c565b611d6d606083018661195c565b611d7a6080830185611d22565b611d8760a0830184611cb9565b979650505050505050565b611d9b81611be1565b82525050565b6000602082019050611db66000830184611d92565b92915050565b600060208284031215611dd257611dd1611990565b5b6000611de0848285016119e3565b91505092915050565b6000611e04611dff611dfa84611be1565b611b67565b611952565b9050919050565b611e1481611de9565b82525050565b6000602082019050611e2f6000830184611e0b565b92915050565b600082825260208201905092915050565b7f466c756964206e6f7420757020666f722061756374696f6e0000000000000000600082015250565b6000611e7c601883611e35565b9150611e8782611e46565b602082019050919050565b60006020820190508181036000830152611eab81611e6f565b9050919050565b7f41756374696f6e20657870697265640000000000000000000000000000000000600082015250565b6000611ee8600f83611e35565b9150611ef382611eb2565b602082019050919050565b60006020820190508181036000830152611f1781611edb565b9050919050565b7f4d7573742073656e64206174206c656173742072657365727665507269636500600082015250565b6000611f54601f83611e35565b9150611f5f82611f1e565b602082019050919050565b60006020820190508181036000830152611f8381611f47565b9050919050565b7f4e487b7100000000000000000000000000000000000000000000000000000000600052601160045260246000fd5b6000611fc482611952565b9150611fcf83611952565b9250817fffffffffffffffffffffffffffffffffffffffffffffffffffffffffffffffff048311821515161561200857612007611f8a565b5b828202905092915050565b7f4e487b7100000000000000000000000000000000000000000000000000000000600052601260045260246000fd5b600061204d82611952565b915061205883611952565b92508261206857612067612013565b5b828204905092915050565b600061207e82611952565b915061208983611952565b9250827fffffffffffffffffffffffffffffffffffffffffffffffffffffffffffffffff038211156120be576120bd611f8a565b5b828201905092915050565b7f4d7573742073656e64206d6f7265207468616e206c617374206269642062792060008201527f6d696e426964496e6372656d656e7450657263656e7461676520616d6f756e74602082015250565b6000612125604083611e35565b9150612130826120c9565b604082019050919050565b6000602082019050818103600083015261215481612118565b9050919050565b600061216682611952565b915061217183611952565b92508282101561218457612183611f8a565b5b828203905092915050565b60006060820190506121a46000830186611c47565b6121b1602083018561195c565b6121be6040830184611cb9565b949350505050565b7f4f776e61626c653a206e6577206f776e657220697320746865207a65726f206160008201527f6464726573730000000000000000000000000000000000000000000000000000602082015250565b6000612222602683611e35565b915061222d826121c6565b604082019050919050565b6000602082019050818103600083015261225181612215565b9050919050565b7f4f776e61626c653a2063616c6c6572206973206e6f7420746865206f776e6572600082015250565b600061228e602083611e35565b915061229982612258565b602082019050919050565b600060208201905081810360008301526122bd81612281565b9050919050565b6000815190506122d3816119f8565b92915050565b6000602082840312156122ef576122ee611990565b5b60006122fd848285016122c4565b91505092915050565b600061231182611952565b915061231c83611952565b92508261232c5761232b612013565b5b828206905092915050565b600060408201905061234c6000830185611c47565b612359602083018461195c565b9392505050565b60008160e01c9050919050565b600060033d111561238c5760046000803e612389600051612360565b90505b90565b6000601f19601f8301169050919050565b7f4e487b7100000000000000000000000000000000000000000000000000000000600052604160045260246000fd5b6123d88261238f565b810181811067ffffffffffffffff821117156123f7576123f66123a0565b5b80604052505050565b600060443d101561241057612493565b612418611986565b60043d036004823e80513d602482011167ffffffffffffffff82111715612440575050612493565b808201805167ffffffffffffffff81111561245e5750505050612493565b80602083010160043d03850181111561247b575050505050612493565b61248a826020018501866123cf565b82955050505050505b90565b60006040820190506124ab600083018561195c565b6124b8602083018461195c565b9392505050565b7f5265656e7472616e637947756172643a207265656e7472616e742063616c6c00600082015250565b60006124f5601f83611e35565b9150612500826124bf565b602082019050919050565b60006020820190508181036000830152612524816124e8565b9050919050565b61253481611cad565b811461253f57600080fd5b50565b6000815190506125518161252b565b92915050565b60006020828403121561256d5761256c611990565b5b600061257b84828501612542565b91505092915050565b7f5061757361626c653a206e6f7420706175736564000000000000000000000000600082015250565b60006125ba601483611e35565b91506125c582612584565b602082019050919050565b600060208201905081810360008301526125e9816125ad565b9050919050565b7f41756374696f6e206861736e277420626567756e000000000000000000000000600082015250565b6000612626601483611e35565b9150612631826125f0565b602082019050919050565b6000602082019050818103600083015261265581612619565b9050919050565b7f41756374696f6e2068617320616c7265616479206265656e20736574746c6564600082015250565b6000612692602083611e35565b915061269d8261265c565b602082019050919050565b600060208201905081810360008301526126c181612685565b9050919050565b7f41756374696f6e206861736e277420636f6d706c657465640000000000000000600082015250565b60006126fe601883611e35565b9150612709826126c8565b602082019050919050565b6000602082019050818103600083015261272d816126f1565b9050919050565b600061273f82611b93565b9050919050565b61274f81612734565b82525050565b600060608201905061276a6000830186611c47565b6127776020830185612746565b612784604083018461195c565b949350505050565b60006040820190506127a16000830185612746565b6127ae602083018461195c565b9392505050565b7f5061757361626c653a2070617573656400000000000000000000000000000000600082015250565b60006127eb601083611e35565b91506127f6826127b5565b602082019050919050565b6000602082019050818103600083015261281a816127de565b9050919050565b600081519050919050565b600081905092915050565b60005b8381101561285557808201518184015260208101905061283a565b83811115612864576000848401525b50505050565b600061287582612821565b61287f818561282c565b935061288f818560208601612837565b80840191505092915050565b60006128a7828461286a565b91508190509291505056fea26469706673582212205332b4af7fd56aa0363417958452bfcfdee6438127f606480ad154029e5b785164736f6c634300080c0033",
  "immutableReferences": {},
  "source": "// SPDX-License-Identifier: GPL-3.0\r\npragma solidity 0.8.12;\r\n\r\nimport {Pausable} from \"@openzeppelin/contracts/security/Pausable.sol\";\r\nimport {ReentrancyGuard} from \"@openzeppelin/contracts/security/ReentrancyGuard.sol\";\r\nimport {Ownable} from \"@openzeppelin/contracts/access/Ownable.sol\";\r\nimport {IWETH} from \"./interfaces/IWETH.sol\";\r\nimport {IERC20} from \"@openzeppelin/contracts/token/ERC20/IERC20.sol\";\r\nimport {IERC721Receiver} from \"@openzeppelin/contracts/token/ERC721/IERC721Receiver.sol\";\r\nimport {IAuctionHouse} from \"./interfaces/IAuctionHouse.sol\";\r\nimport {IFLUIDtoken} from \"./interfaces/IFLUIDtoken.sol\";\r\nimport {IFLUIDnft} from \"./interfaces/IFLUIDnft.sol\";\r\n\r\n// Fork of nouns auction house: 0xF15a943787014461d94da08aD4040f79Cd7c124e\r\n\r\n/// @title FLUID DAO Auction House\r\n/// @author @cartercarlson\r\n/// @notice FLUID DAO auction contract to sell the FLUID DAO NFT.\r\ncontract AuctionHouse is\r\n    Pausable,\r\n    ReentrancyGuard,\r\n    Ownable,\r\n    IAuctionHouse,\r\n    IERC721Receiver\r\n{\r\n\r\n    // The ERC721 token contract\r\n    IFLUIDnft public FLUIDnft;\r\n\r\n    // The address of the WETH contract\r\n    address public weth;\r\n\r\n    // The minimum amount of time left in an auction after a new bid is created\r\n    uint256 public timeBuffer;\r\n\r\n    // The minimum price accepted in an auction\r\n    uint256 public reservePrice;\r\n\r\n    // The minimum percentage difference between the last bid amount and the current bid\r\n    uint8 public minBidIncrementPercentage;\r\n\r\n    // The duration of a single auction\r\n    uint256 public duration;\r\n\r\n    // The active auction\r\n    IAuctionHouse.Auction public auction;\r\n\r\n    // Fluidtoken address\r\n    IFLUIDtoken public FLUIDtoken;\r\n\r\n    // DAO to receive every 10th nft\r\n    address public dao;\r\n\r\n    // FLUID erc20 amount rewarded to a winner\r\n    uint256 public rewardAmount = 1000 * 1e18;\r\n\r\n    constructor(\r\n        IFLUIDnft _FLUIDnft,\r\n        IFLUIDtoken _FLUIDtoken,\r\n        address _dao,\r\n        address _weth,\r\n        uint256 _timeBuffer,\r\n        uint256 _reservePrice,\r\n        uint8 _minBidIncrementPercentage,\r\n        uint256 _duration\r\n    ) {\r\n        FLUIDnft = _FLUIDnft;\r\n        FLUIDtoken = _FLUIDtoken;\r\n        dao = _dao;\r\n        weth = _weth;\r\n        timeBuffer = _timeBuffer;\r\n        reservePrice = _reservePrice;\r\n        minBidIncrementPercentage = _minBidIncrementPercentage;\r\n        duration = _duration;\r\n\r\n        _pause();\r\n    }\r\n\r\n    /// @notice Set the auction time buffer.\r\n    /// @dev Only callable by the owner.\r\n    function setTimeBuffer(uint256 _timeBuffer) external override onlyOwner {\r\n        timeBuffer = _timeBuffer;\r\n\r\n        emit AuctionTimeBufferUpdated(_timeBuffer);\r\n    }\r\n\r\n\r\n    /// @notice Set the auction reserve price.\r\n    /// @dev Only callable by the owner.\r\n    function setReservePrice(uint256 _reservePrice) external override onlyOwner {\r\n        reservePrice = _reservePrice;\r\n\r\n        emit AuctionReservePriceUpdated(_reservePrice);\r\n    }\r\n\r\n    /// @notice Set the auction minimum bid increment percentage.\r\n    /// @dev Only callable by the owner.\r\n    function setMinBidIncrementPercentage(uint8 _minBidIncrementPercentage) external override onlyOwner {\r\n        minBidIncrementPercentage = _minBidIncrementPercentage;\r\n\r\n        emit AuctionMinBidIncrementPercentageUpdated(_minBidIncrementPercentage);\r\n    }\r\n\r\n    /// @notice Settle the current auction, mint a new FLUIDnft, and put it up for auction.\r\n    function settleCurrentAndCreateNewAuction()\r\n        external\r\n        override\r\n        nonReentrant\r\n        whenNotPaused\r\n    {\r\n        _settleAuction();\r\n        _createAuction();\r\n    }\r\n\r\n\r\n    /// @notice Settle the current auction.\r\n    /// @dev This function can only be called when the contract is paused.\r\n    function settleAuction() external override whenPaused nonReentrant {\r\n        _settleAuction();\r\n    }\r\n\r\n    /// @notice Create a bid for a FLUIDnft, with a given amount.\r\n    /// @dev This contract only accepts payment in ETH.\r\n    function createBid(uint256 FLUIDnftId)\r\n        external\r\n        payable\r\n        override\r\n        nonReentrant\r\n    {\r\n        IAuctionHouse.Auction memory _auction = auction;\r\n        require(\r\n            _auction.FLUIDnftId == FLUIDnftId,\r\n            \"Fluid not up for auction\"\r\n        );\r\n        require(block.timestamp < _auction.endTime, \"Auction expired\");\r\n        uint256 amount = msg.value;\r\n        require(amount >= reservePrice, \"Must send at least reservePrice\");\r\n        require(\r\n            amount >=\r\n                _auction.amount +\r\n                    ((_auction.amount * minBidIncrementPercentage) / 100),\r\n            \"Must send more than last bid by minBidIncrementPercentage amount\"\r\n        );\r\n\r\n        address payable lastBidder = _auction.bidder;\r\n        uint256 lastBidAmount = _auction.amount;\r\n\r\n        // Refund the last bidder, if applicable\r\n        if (lastBidder != address(0)) {\r\n            _safeTransferETHWithFallback(lastBidder, lastBidAmount);\r\n        }\r\n\r\n        auction.amount = amount;\r\n        auction.bidder = payable(msg.sender);\r\n\r\n        // Extend the auction if the bid was received within `timeBuffer` of the auction end time\r\n        bool extended = _auction.endTime - block.timestamp < timeBuffer;\r\n        if (extended) {\r\n            auction.endTime = _auction.endTime = block.timestamp + timeBuffer;\r\n        }\r\n\r\n        emit AuctionBid(_auction.FLUIDnftId, msg.sender, amount, extended);\r\n\r\n        if (extended) {\r\n            emit AuctionExtended(_auction.FLUIDnftId, _auction.endTime);\r\n        }\r\n    }\r\n\r\n    \r\n    /// @notice Pause the auction house.\r\n    /// @dev This function can only be called by the owner when the\r\n    /// contract is unpaused. While no new auctions can be started when paused,\r\n    /// anyone can settle an ongoing auction.\r\n    function pause() external override onlyOwner {\r\n        _pause();\r\n    }\r\n\r\n\r\n    /// @notice Unpause the auction house.\r\n    /// @dev This function can only be called by the owner when the\r\n    /// contract is paused. If required, this function will start a new auction.\r\n    function unpause() external override onlyOwner {\r\n        _unpause();\r\n\r\n        if (auction.startTime == 0 || auction.settled) {\r\n            _createAuction();\r\n        }\r\n    }\r\n\r\n\r\n    /// @notice Create an auction.\r\n    /// @dev Store the auction details in the `auction` state variable and emit an AuctionCreated event.\r\n    /// If the mint reverts, the minter was updated without pausing this contract first. To remedy this,\r\n    /// catch the revert and pause this contract.\r\n\r\n    function _createAuction() internal {\r\n        // mint every 10th to dao\r\n        uint256 nextTokenId = FLUIDnft.totalSupply() + 1;\r\n        if (nextTokenId % 10 == 0) {\r\n            FLUIDnft.mint(dao);\r\n\r\n            // lower rewards every two hundred minted by 10%\r\n            if (nextTokenId % 200 == 0) {\r\n                rewardAmount -= (rewardAmount / 10);\r\n            }\r\n            // send FLUID rewards to dao\r\n            FLUIDtoken.mint(dao, rewardAmount);\r\n        }\r\n\r\n        try FLUIDnft.mint(address(this)) returns (uint256 FLUIDnftId) {\r\n            uint256 startTime = block.timestamp;\r\n            uint256 endTime = startTime + duration;\r\n\r\n            auction = Auction({\r\n                FLUIDnftId: FLUIDnftId,\r\n                amount: 0,\r\n                startTime: startTime,\r\n                endTime: endTime,\r\n                bidder: payable(0),\r\n                settled: false\r\n            });\r\n\r\n            emit AuctionCreated(FLUIDnftId, startTime, endTime);\r\n        } catch Error(string memory /* err */) {\r\n            _pause();\r\n        }\r\n    }\r\n\r\n\r\n    /// @notice Settle an auction, finalizing the bid and paying out to the owner.\r\n    /// @dev If there are no bids, the FLUIDnft is burned.\r\n    function _settleAuction() internal {\r\n        IAuctionHouse.Auction memory _auction = auction;\r\n        require(_auction.startTime != 0, \"Auction hasn't begun\");\r\n        require(!_auction.settled, \"Auction has already been settled\");\r\n        require(\r\n            block.timestamp >= _auction.endTime,\r\n            \"Auction hasn't completed\"\r\n        );\r\n\r\n        auction.settled = true;\r\n\r\n        if (_auction.bidder == address(0)) {\r\n            FLUIDnft.burn(_auction.FLUIDnftId);\r\n        } else {\r\n            FLUIDnft.transferFrom(\r\n                address(this),\r\n                _auction.bidder,\r\n                _auction.FLUIDnftId\r\n            );\r\n            FLUIDtoken.mint(_auction.bidder, rewardAmount);\r\n        }\r\n        if (_auction.amount > 0) {\r\n            _safeTransferETHWithFallback(owner(), _auction.amount);\r\n        }\r\n\r\n        emit AuctionSettled(\r\n            _auction.FLUIDnftId,\r\n            _auction.bidder,\r\n            _auction.amount\r\n        );\r\n    }\r\n\r\n    /// @notice Transfer ETH. If the ETH transfer fails, wrap the ETH and try send it as WETH.\r\n    function _safeTransferETHWithFallback(address to, uint256 amount) internal {\r\n        if (!_safeTransferETH(to, amount)) {\r\n            IWETH(weth).deposit{value: amount}();\r\n            IERC20(weth).transfer(to, amount);\r\n        }\r\n    }\r\n\r\n\r\n    /// @notice Transfer ETH and return the success status.\r\n    /// @dev This function only forwards 30,000 gas to the callee.\r\n    function _safeTransferETH(address to, uint256 value)\r\n        internal\r\n        returns (bool)\r\n    {\r\n        (bool success, ) = to.call{value: value, gas: 30_000}(new bytes(0));\r\n        return success;\r\n    }\r\n\r\n    // https://github.com/nibbstack/erc721/blob/master/src/tests/mocks/nf-token-receiver-test-mock.sol\r\n    function onERC721Received(\r\n        address _operator,\r\n        address _from,\r\n        uint256 _tokenId,\r\n        bytes calldata _data\r\n    )\r\n        external\r\n        override\r\n        returns(bytes4)\r\n    {\r\n        _operator;\r\n        _from;\r\n        _tokenId;\r\n        _data;\r\n        return 0x150b7a02;\r\n    }\r\n}\r\n",
  "sourcePath": "fluiddao\\contracts\\AuctionHouse.sol",
  "compiler": {
    "name": "solc",
    "version": "0.8.12+commit.f00d7308.Emscripten.clang"
  },
  "schemaVersion": "3.4.10",
  "updatedAt": "2023-02-02T10:16:15.906Z",
  "devdoc": {
    "author": "@cartercarlson",
    "kind": "dev",
    "methods": {
      "createBid(uint256)": {
        "details": "This contract only accepts payment in ETH."
      },
      "owner()": {
        "details": "Returns the address of the current owner."
      },
      "pause()": {
        "details": "This function can only be called by the owner when the contract is unpaused. While no new auctions can be started when paused, anyone can settle an ongoing auction."
      },
      "paused()": {
        "details": "Returns true if the contract is paused, and false otherwise."
      },
      "renounceOwnership()": {
        "details": "Leaves the contract without owner. It will not be possible to call `onlyOwner` functions anymore. Can only be called by the current owner. NOTE: Renouncing ownership will leave the contract without an owner, thereby removing any functionality that is only available to the owner."
      },
      "setMinBidIncrementPercentage(uint8)": {
        "details": "Only callable by the owner."
      },
      "setReservePrice(uint256)": {
        "details": "Only callable by the owner."
      },
      "setTimeBuffer(uint256)": {
        "details": "Only callable by the owner."
      },
      "settleAuction()": {
        "details": "This function can only be called when the contract is paused."
      },
      "transferOwnership(address)": {
        "details": "Transfers ownership of the contract to a new account (`newOwner`). Can only be called by the current owner."
      },
      "unpause()": {
        "details": "This function can only be called by the owner when the contract is paused. If required, this function will start a new auction."
      }
    },
    "title": "FLUID DAO Auction House",
    "version": 1
  },
  "userdoc": {
    "kind": "user",
    "methods": {
      "createBid(uint256)": {
        "notice": "Create a bid for a FLUIDnft, with a given amount."
      },
      "pause()": {
        "notice": "Pause the auction house."
      },
      "setMinBidIncrementPercentage(uint8)": {
        "notice": "Set the auction minimum bid increment percentage."
      },
      "setReservePrice(uint256)": {
        "notice": "Set the auction reserve price."
      },
      "setTimeBuffer(uint256)": {
        "notice": "Set the auction time buffer."
      },
      "settleAuction()": {
        "notice": "Settle the current auction."
      },
      "settleCurrentAndCreateNewAuction()": {
        "notice": "Settle the current auction, mint a new FLUIDnft, and put it up for auction."
      },
      "unpause()": {
        "notice": "Unpause the auction house."
      }
    },
    "notice": "FLUID DAO auction contract to sell the FLUID DAO NFT.",
    "version": 1
  }
}